{
  "_format": "hh-sol-artifact-1",
  "contractName": "DAO",
  "sourceName": "contracts/DAO.sol",
  "abi": [
    {
      "inputs": [
        {
          "internalType": "contract IERC20",
          "name": "_token",
          "type": "address"
        },
        {
          "internalType": "uint256",
          "name": "_pricePerShare",
          "type": "uint256"
        }
      ],
      "stateMutability": "nonpayable",
      "type": "constructor"
    },
    {
      "inputs": [
        {
          "internalType": "address",
          "name": "owner",
          "type": "address"
        }
      ],
      "name": "OwnableInvalidOwner",
      "type": "error"
    },
    {
      "inputs": [
        {
          "internalType": "address",
          "name": "account",
          "type": "address"
        }
      ],
      "name": "OwnableUnauthorizedAccount",
      "type": "error"
    },
    {
      "anonymous": false,
      "inputs": [
        {
          "indexed": false,
          "internalType": "address",
          "name": "delegate",
          "type": "address"
        },
        {
          "indexed": false,
          "internalType": "address",
          "name": "delegator",
          "type": "address"
        },
        {
          "indexed": false,
          "internalType": "uint256",
          "name": "amount",
          "type": "uint256"
        }
      ],
      "name": "DelegateShares",
      "type": "event"
    },
    {
      "anonymous": false,
      "inputs": [
        {
          "indexed": false,
          "internalType": "address",
          "name": "delegate",
          "type": "address"
        },
        {
          "indexed": false,
          "internalType": "address",
          "name": "delegator",
          "type": "address"
        },
        {
          "indexed": false,
          "internalType": "uint256",
          "name": "amount",
          "type": "uint256"
        }
      ],
      "name": "DelegationRevoked",
      "type": "event"
    },
    {
      "anonymous": false,
      "inputs": [
        {
          "indexed": true,
          "internalType": "address",
          "name": "previousOwner",
          "type": "address"
        },
        {
          "indexed": true,
          "internalType": "address",
          "name": "newOwner",
          "type": "address"
        }
      ],
      "name": "OwnershipTransferred",
      "type": "event"
    },
    {
      "anonymous": false,
      "inputs": [
        {
          "indexed": false,
          "internalType": "uint256",
          "name": "proposalId",
          "type": "uint256"
        },
        {
          "indexed": false,
          "internalType": "string",
          "name": "title",
          "type": "string"
        },
        {
          "indexed": false,
          "internalType": "string",
          "name": "description",
          "type": "string"
        },
        {
          "indexed": false,
          "internalType": "address",
          "name": "recipient",
          "type": "address"
        },
        {
          "indexed": false,
          "internalType": "uint256",
          "name": "amount",
          "type": "uint256"
        },
        {
          "indexed": false,
          "internalType": "uint256",
          "name": "votingPeriod",
          "type": "uint256"
        }
      ],
      "name": "ProposalCreated",
      "type": "event"
    },
    {
      "anonymous": false,
      "inputs": [
        {
          "indexed": false,
          "internalType": "uint256",
          "name": "proposalId",
          "type": "uint256"
        }
      ],
      "name": "ProposalExecuted",
      "type": "event"
    },
    {
      "anonymous": false,
      "inputs": [
        {
          "indexed": false,
          "internalType": "address",
          "name": "buyer",
          "type": "address"
        },
        {
          "indexed": false,
          "internalType": "uint256",
          "name": "amount",
          "type": "uint256"
        }
      ],
      "name": "ShareBought",
      "type": "event"
    },
    {
      "anonymous": false,
      "inputs": [
        {
          "indexed": false,
          "internalType": "uint256",
          "name": "proposalId",
          "type": "uint256"
        },
        {
          "indexed": false,
          "internalType": "address",
          "name": "voter",
          "type": "address"
        },
        {
          "indexed": false,
          "internalType": "uint8",
          "name": "voteOption",
          "type": "uint8"
        },
        {
          "indexed": false,
          "internalType": "uint256",
          "name": "amount",
          "type": "uint256"
        }
      ],
      "name": "VotedProposal",
      "type": "event"
    },
    {
      "inputs": [
        {
          "internalType": "uint256",
          "name": "amount",
          "type": "uint256"
        }
      ],
      "name": "buyShares",
      "outputs": [],
      "stateMutability": "nonpayable",
      "type": "function"
    },
    {
      "inputs": [
        {
          "internalType": "address",
          "name": "",
          "type": "address"
        }
      ],
      "name": "delegate",
      "outputs": [
        {
          "internalType": "address",
          "name": "",
          "type": "address"
        }
      ],
      "stateMutability": "view",
      "type": "function"
    },
    {
      "inputs": [
        {
          "internalType": "address",
          "name": "to",
          "type": "address"
        }
      ],
      "name": "delegateVote",
      "outputs": [],
      "stateMutability": "nonpayable",
      "type": "function"
    },
    {
      "inputs": [
        {
          "internalType": "address",
          "name": "",
          "type": "address"
        }
      ],
      "name": "delegatedVotes",
      "outputs": [
        {
          "internalType": "uint256",
          "name": "",
          "type": "uint256"
        }
      ],
      "stateMutability": "view",
      "type": "function"
    },
    {
      "inputs": [
        {
          "internalType": "address",
          "name": "",
          "type": "address"
        },
        {
          "internalType": "uint256",
          "name": "",
          "type": "uint256"
        }
      ],
      "name": "delegator",
      "outputs": [
        {
          "internalType": "address",
          "name": "",
          "type": "address"
        }
      ],
      "stateMutability": "view",
      "type": "function"
    },
    {
      "inputs": [],
      "name": "endSale",
      "outputs": [],
      "stateMutability": "nonpayable",
      "type": "function"
    },
    {
      "inputs": [
        {
          "internalType": "uint256",
          "name": "proposalId",
          "type": "uint256"
        }
      ],
      "name": "executeProposal",
      "outputs": [],
      "stateMutability": "nonpayable",
      "type": "function"
    },
    {
      "inputs": [
        {
          "internalType": "address",
          "name": "_delegator",
          "type": "address"
        }
      ],
      "name": "getDelegator",
      "outputs": [
        {
          "internalType": "address[]",
          "name": "",
          "type": "address[]"
        }
      ],
      "stateMutability": "view",
      "type": "function"
    },
    {
      "inputs": [
        {
          "internalType": "uint256",
          "name": "proposalId",
          "type": "uint256"
        },
        {
          "internalType": "address",
          "name": "voter",
          "type": "address"
        }
      ],
      "name": "hasVoted",
      "outputs": [
        {
          "internalType": "bool",
          "name": "",
          "type": "bool"
        }
      ],
      "stateMutability": "view",
      "type": "function"
    },
    {
      "inputs": [],
      "name": "owner",
      "outputs": [
        {
          "internalType": "address",
          "name": "",
          "type": "address"
        }
      ],
      "stateMutability": "view",
      "type": "function"
    },
    {
      "inputs": [],
      "name": "pricePerShare",
      "outputs": [
        {
          "internalType": "uint256",
          "name": "",
          "type": "uint256"
        }
      ],
      "stateMutability": "view",
      "type": "function"
    },
    {
      "inputs": [],
      "name": "proposalCount",
      "outputs": [
        {
          "internalType": "uint256",
          "name": "",
          "type": "uint256"
        }
      ],
      "stateMutability": "view",
      "type": "function"
    },
    {
      "inputs": [
        {
          "internalType": "uint256",
          "name": "",
          "type": "uint256"
        }
      ],
      "name": "proposals",
      "outputs": [
        {
          "internalType": "string",
          "name": "title",
          "type": "string"
        },
        {
          "internalType": "string",
          "name": "description",
          "type": "string"
        },
        {
          "internalType": "address payable",
          "name": "recipient",
          "type": "address"
        },
        {
          "internalType": "uint256",
          "name": "amount",
          "type": "uint256"
        },
        {
          "internalType": "uint256",
          "name": "votesFor",
          "type": "uint256"
        },
        {
          "internalType": "uint256",
          "name": "votesAgainst",
          "type": "uint256"
        },
        {
          "internalType": "uint256",
          "name": "votesAbstain",
          "type": "uint256"
        },
        {
          "internalType": "bool",
          "name": "executed",
          "type": "bool"
        },
        {
          "internalType": "uint256",
          "name": "endTime",
          "type": "uint256"
        }
      ],
      "stateMutability": "view",
      "type": "function"
    },
    {
      "inputs": [
        {
          "internalType": "string",
          "name": "_title",
          "type": "string"
        },
        {
          "internalType": "string",
          "name": "_description",
          "type": "string"
        },
        {
          "internalType": "address payable",
          "name": "_recipient",
          "type": "address"
        },
        {
          "internalType": "uint256",
          "name": "_amount",
          "type": "uint256"
        },
        {
          "internalType": "uint256",
          "name": "_votingPeriod",
          "type": "uint256"
        }
      ],
      "name": "proposeDecision",
      "outputs": [],
      "stateMutability": "nonpayable",
      "type": "function"
    },
    {
      "inputs": [],
      "name": "renounceOwnership",
      "outputs": [],
      "stateMutability": "nonpayable",
      "type": "function"
    },
    {
      "inputs": [],
      "name": "revokeDelegation",
      "outputs": [],
      "stateMutability": "nonpayable",
      "type": "function"
    },
    {
      "inputs": [],
      "name": "saleActive",
      "outputs": [
        {
          "internalType": "bool",
          "name": "",
          "type": "bool"
        }
      ],
      "stateMutability": "view",
      "type": "function"
    },
    {
      "inputs": [
        {
          "internalType": "address",
          "name": "",
          "type": "address"
        }
      ],
      "name": "shares",
      "outputs": [
        {
          "internalType": "uint256",
          "name": "",
          "type": "uint256"
        }
      ],
      "stateMutability": "view",
      "type": "function"
    },
    {
      "inputs": [],
      "name": "token",
      "outputs": [
        {
          "internalType": "contract IERC20",
          "name": "",
          "type": "address"
        }
      ],
      "stateMutability": "view",
      "type": "function"
    },
    {
      "inputs": [
        {
          "internalType": "address",
          "name": "newOwner",
          "type": "address"
        }
      ],
      "name": "transferOwnership",
      "outputs": [],
      "stateMutability": "nonpayable",
      "type": "function"
    },
    {
      "inputs": [
        {
          "internalType": "uint256",
          "name": "proposalId",
          "type": "uint256"
        },
        {
          "internalType": "uint8",
          "name": "voteOption",
          "type": "uint8"
        }
      ],
      "name": "vote",
      "outputs": [],
      "stateMutability": "nonpayable",
      "type": "function"
    }
  ],
  "bytecode": "0x608060405260018060146101000a81548160ff02191690831515021790555034801561002a57600080fd5b50604051613580380380613580833981810160405281019061004c919061028d565b33600073ffffffffffffffffffffffffffffffffffffffff168173ffffffffffffffffffffffffffffffffffffffff16036100bf5760006040517f1e4fbdf70000000000000000000000000000000000000000000000000000000081526004016100b691906102dc565b60405180910390fd5b6100ce8161011e60201b60201c565b5081600160006101000a81548173ffffffffffffffffffffffffffffffffffffffff021916908373ffffffffffffffffffffffffffffffffffffffff1602179055508060028190555050506102f7565b60008060009054906101000a900473ffffffffffffffffffffffffffffffffffffffff169050816000806101000a81548173ffffffffffffffffffffffffffffffffffffffff021916908373ffffffffffffffffffffffffffffffffffffffff1602179055508173ffffffffffffffffffffffffffffffffffffffff168173ffffffffffffffffffffffffffffffffffffffff167f8be0079c531659141344cd1fd0a4f28419497f9722a3daafe3b4186f6b6457e060405160405180910390a35050565b600080fd5b600073ffffffffffffffffffffffffffffffffffffffff82169050919050565b6000610212826101e7565b9050919050565b600061022482610207565b9050919050565b61023481610219565b811461023f57600080fd5b50565b6000815190506102518161022b565b92915050565b6000819050919050565b61026a81610257565b811461027557600080fd5b50565b60008151905061028781610261565b92915050565b600080604083850312156102a4576102a36101e2565b5b60006102b285828601610242565b92505060206102c385828601610278565b9150509250929050565b6102d681610207565b82525050565b60006020820190506102f160008301846102cd565b92915050565b61327a806103066000396000f3fe608060405234801561001057600080fd5b50600436106101375760003560e01c806399530b06116100b8578063ce7c2ac21161007c578063ce7c2ac21461031c578063d1a93d181461034c578063d364d4d414610368578063da35c66414610398578063f2fde38b146103b6578063fc0c546a146103d257610137565b806399530b061461028c578063a4d31805146102aa578063a64ad595146102b4578063b31e1d4d146102e4578063c062b4061461030057610137565b80635c19a95c116100ff5780635c19a95c146101fa57806368428a1b1461022a578063715018a6146102485780638da5cb5b14610252578063943e82161461027057610137565b8063013cf08b1461013c5780630d61b519146101745780631174d00114610190578063380d831b146101c057806343859632146101ca575b600080fd5b61015660048036038101906101519190611fa6565b6103f0565b60405161016b999897969594939291906120ce565b60405180910390f35b61018e60048036038101906101899190611fa6565b61057b565b005b6101aa60048036038101906101a591906121a7565b610887565b6040516101b791906121f6565b60405180910390f35b6101c86108d5565b005b6101e460048036038101906101df9190612211565b6108fa565b6040516101f19190612251565b60405180910390f35b610214600480360381019061020f919061226c565b610965565b60405161022191906121f6565b60405180910390f35b610232610998565b60405161023f9190612251565b60405180910390f35b6102506109ab565b005b61025a6109bf565b60405161026791906121f6565b60405180910390f35b61028a600480360381019061028591906122d2565b6109e8565b005b610294610ffb565b6040516102a19190612312565b60405180910390f35b6102b2611001565b005b6102ce60048036038101906102c9919061226c565b611452565b6040516102db91906123eb565b60405180910390f35b6102fe60048036038101906102f9919061226c565b61151f565b005b61031a6004803603810190610315919061249e565b61198f565b005b6103366004803603810190610331919061226c565b611b62565b6040516103439190612312565b60405180910390f35b61036660048036038101906103619190611fa6565b611b7a565b005b610382600480360381019061037d919061226c565b611d49565b60405161038f9190612312565b60405180910390f35b6103a0611d61565b6040516103ad9190612312565b60405180910390f35b6103d060048036038101906103cb919061226c565b611d67565b005b6103da611ded565b6040516103e791906125b9565b60405180910390f35b600560205280600052604060002060009150905080600001805461041390612603565b80601f016020809104026020016040519081016040528092919081815260200182805461043f90612603565b801561048c5780601f106104615761010080835404028352916020019161048c565b820191906000526020600020905b81548152906001019060200180831161046f57829003601f168201915b5050505050908060010180546104a190612603565b80601f01602080910402602001604051908101604052809291908181526020018280546104cd90612603565b801561051a5780601f106104ef5761010080835404028352916020019161051a565b820191906000526020600020905b8154815290600101906020018083116104fd57829003601f168201915b5050505050908060020160009054906101000a900473ffffffffffffffffffffffffffffffffffffffff16908060030154908060040154908060050154908060060154908060070160009054906101000a900460ff16908060080154905089565b6000600460003373ffffffffffffffffffffffffffffffffffffffff1673ffffffffffffffffffffffffffffffffffffffff16815260200190815260200160002054116105fd576040517f08c379a00000000000000000000000000000000000000000000000000000000081526004016105f490612680565b60405180910390fd5b60006005600083815260200190815260200160002090504281600801541061065a576040517f08c379a0000000000000000000000000000000000000000000000000000000008152600401610651906126ec565b60405180910390fd5b8060070160009054906101000a900460ff16156106ac576040517f08c379a00000000000000000000000000000000000000000000000000000000081526004016106a390612758565b60405180910390fd5b60018160070160006101000a81548160ff02191690831515021790555080600501548160040154111561084c57600073ffffffffffffffffffffffffffffffffffffffff168160020160009054906101000a900473ffffffffffffffffffffffffffffffffffffffff1673ffffffffffffffffffffffffffffffffffffffff161415801561073e575060008160030154115b1561084b57600160009054906101000a900473ffffffffffffffffffffffffffffffffffffffff1673ffffffffffffffffffffffffffffffffffffffff1663a9059cbb8260020160009054906101000a900473ffffffffffffffffffffffffffffffffffffffff1683600301546040518363ffffffff1660e01b81526004016107c8929190612799565b6020604051808303816000875af11580156107e7573d6000803e3d6000fd5b505050506040513d601f19601f8201168201806040525081019061080b91906127ee565b61084a576040517f08c379a000000000000000000000000000000000000000000000000000000000815260040161084190612867565b60405180910390fd5b5b5b7f712ae1383f79ac853f8d882153778e0260ef8f03b504e2866e0593e04d2b291f8260405161087b9190612312565b60405180910390a15050565b600760205281600052604060002081815481106108a357600080fd5b906000526020600020016000915091509054906101000a900473ffffffffffffffffffffffffffffffffffffffff1681565b6108dd611e13565b6000600160146101000a81548160ff021916908315150217905550565b60006005600084815260200190815260200160002060090160008373ffffffffffffffffffffffffffffffffffffffff1673ffffffffffffffffffffffffffffffffffffffff16815260200190815260200160002060009054906101000a900460ff16905092915050565b60066020528060005260406000206000915054906101000a900473ffffffffffffffffffffffffffffffffffffffff1681565b600160149054906101000a900460ff1681565b6109b3611e13565b6109bd6000611e9a565b565b60008060009054906101000a900473ffffffffffffffffffffffffffffffffffffffff16905090565b6000600460003373ffffffffffffffffffffffffffffffffffffffff1673ffffffffffffffffffffffffffffffffffffffff1681526020019081526020016000205411610a6a576040517f08c379a0000000000000000000000000000000000000000000000000000000008152600401610a6190612680565b60405180910390fd5b60006005600084815260200190815260200160002090506003548310610ac5576040517f08c379a0000000000000000000000000000000000000000000000000000000008152600401610abc906128d3565b60405180910390fd5b42816008015411610b0b576040517f08c379a0000000000000000000000000000000000000000000000000000000008152600401610b029061293f565b60405180910390fd5b8060090160003373ffffffffffffffffffffffffffffffffffffffff1673ffffffffffffffffffffffffffffffffffffffff16815260200190815260200160002060009054906101000a900460ff1615610b9a576040517f08c379a0000000000000000000000000000000000000000000000000000000008152600401610b91906129ab565b60405180910390fd5b600073ffffffffffffffffffffffffffffffffffffffff16600660003373ffffffffffffffffffffffffffffffffffffffff1673ffffffffffffffffffffffffffffffffffffffff16815260200190815260200160002060009054906101000a900473ffffffffffffffffffffffffffffffffffffffff1673ffffffffffffffffffffffffffffffffffffffff1614610c68576040517f08c379a0000000000000000000000000000000000000000000000000000000008152600401610c5f90612a3d565b60405180910390fd5b6000600860003373ffffffffffffffffffffffffffffffffffffffff1673ffffffffffffffffffffffffffffffffffffffff16815260200190815260200160002054600460003373ffffffffffffffffffffffffffffffffffffffff1673ffffffffffffffffffffffffffffffffffffffff16815260200190815260200160002054610cf49190612a8c565b905060018260090160003373ffffffffffffffffffffffffffffffffffffffff1673ffffffffffffffffffffffffffffffffffffffff16815260200190815260200160002060006101000a81548160ff02191690831515021790555060005b600760003373ffffffffffffffffffffffffffffffffffffffff1673ffffffffffffffffffffffffffffffffffffffff16815260200190815260200160002080549050811015610e7f576001836009016000600760003373ffffffffffffffffffffffffffffffffffffffff1673ffffffffffffffffffffffffffffffffffffffff1681526020019081526020016000208481548110610df657610df5612ac0565b5b9060005260206000200160009054906101000a900473ffffffffffffffffffffffffffffffffffffffff1673ffffffffffffffffffffffffffffffffffffffff1673ffffffffffffffffffffffffffffffffffffffff16815260200190815260200160002060006101000a81548160ff0219169083151502179055508080600101915050610d53565b5060018360ff1603610ee85780826004016000828254610e9f9190612a8c565b925050819055507f7d0367786ce6429605e65845cf8b169c4091eef599b133add5762573bc600c2b84338584604051610edb9493929190612afe565b60405180910390a1610ff5565b60028360ff1603610f505780826005016000828254610f079190612a8c565b925050819055507f7d0367786ce6429605e65845cf8b169c4091eef599b133add5762573bc600c2b84338584604051610f439493929190612afe565b60405180910390a1610ff4565b60038360ff1603610fb85780826006016000828254610f6f9190612a8c565b925050819055507f7d0367786ce6429605e65845cf8b169c4091eef599b133add5762573bc600c2b84338584604051610fab9493929190612afe565b60405180910390a1610ff3565b6040517f08c379a0000000000000000000000000000000000000000000000000000000008152600401610fea90612b8f565b60405180910390fd5b5b5b50505050565b60025481565b6000600460003373ffffffffffffffffffffffffffffffffffffffff1673ffffffffffffffffffffffffffffffffffffffff1681526020019081526020016000205411611083576040517f08c379a000000000000000000000000000000000000000000000000000000000815260040161107a90612680565b60405180910390fd5b6000600660003373ffffffffffffffffffffffffffffffffffffffff1673ffffffffffffffffffffffffffffffffffffffff16815260200190815260200160002060009054906101000a900473ffffffffffffffffffffffffffffffffffffffff169050600073ffffffffffffffffffffffffffffffffffffffff168173ffffffffffffffffffffffffffffffffffffffff1603611156576040517f08c379a000000000000000000000000000000000000000000000000000000000815260040161114d90612bfb565b60405180910390fd5b600460003373ffffffffffffffffffffffffffffffffffffffff1673ffffffffffffffffffffffffffffffffffffffff16815260200190815260200160002054600860008373ffffffffffffffffffffffffffffffffffffffff1673ffffffffffffffffffffffffffffffffffffffff16815260200190815260200160002060008282546111e49190612c1b565b92505081905550600660003373ffffffffffffffffffffffffffffffffffffffff1673ffffffffffffffffffffffffffffffffffffffff16815260200190815260200160002060006101000a81549073ffffffffffffffffffffffffffffffffffffffff021916905560005b600760008373ffffffffffffffffffffffffffffffffffffffff1673ffffffffffffffffffffffffffffffffffffffff168152602001908152602001600020805490508110156113d4573373ffffffffffffffffffffffffffffffffffffffff16600760008473ffffffffffffffffffffffffffffffffffffffff1673ffffffffffffffffffffffffffffffffffffffff168152602001908152602001600020828154811061130257611301612ac0565b5b9060005260206000200160009054906101000a900473ffffffffffffffffffffffffffffffffffffffff1673ffffffffffffffffffffffffffffffffffffffff16036113c757600760008373ffffffffffffffffffffffffffffffffffffffff1673ffffffffffffffffffffffffffffffffffffffff168152602001908152602001600020818154811061139957611398612ac0565b5b9060005260206000200160006101000a81549073ffffffffffffffffffffffffffffffffffffffff02191690555b8080600101915050611250565b507f8804646c776ee4e91100fb6859354b09a479e5b7fceaa9c7c7364e7d63a1bc813382600460003373ffffffffffffffffffffffffffffffffffffffff1673ffffffffffffffffffffffffffffffffffffffff1681526020019081526020016000205460405161144793929190612c4f565b60405180910390a150565b6060600760008373ffffffffffffffffffffffffffffffffffffffff1673ffffffffffffffffffffffffffffffffffffffff16815260200190815260200160002080548060200260200160405190810160405280929190818152602001828054801561151357602002820191906000526020600020905b8160009054906101000a900473ffffffffffffffffffffffffffffffffffffffff1673ffffffffffffffffffffffffffffffffffffffff16815260200190600101908083116114c9575b50505050509050919050565b6000600460003373ffffffffffffffffffffffffffffffffffffffff1673ffffffffffffffffffffffffffffffffffffffff16815260200190815260200160002054116115a1576040517f08c379a000000000000000000000000000000000000000000000000000000000815260040161159890612680565b60405180910390fd5b3373ffffffffffffffffffffffffffffffffffffffff168173ffffffffffffffffffffffffffffffffffffffff160361160f576040517f08c379a000000000000000000000000000000000000000000000000000000000815260040161160690612cd2565b60405180910390fd5b6000600460008373ffffffffffffffffffffffffffffffffffffffff1673ffffffffffffffffffffffffffffffffffffffff1681526020019081526020016000205411611691576040517f08c379a000000000000000000000000000000000000000000000000000000000815260040161168890612d3e565b60405180910390fd5b600073ffffffffffffffffffffffffffffffffffffffff16600660003373ffffffffffffffffffffffffffffffffffffffff1673ffffffffffffffffffffffffffffffffffffffff16815260200190815260200160002060009054906101000a900473ffffffffffffffffffffffffffffffffffffffff1673ffffffffffffffffffffffffffffffffffffffff161461175f576040517f08c379a000000000000000000000000000000000000000000000000000000000815260040161175690612daa565b60405180910390fd5b80600660003373ffffffffffffffffffffffffffffffffffffffff1673ffffffffffffffffffffffffffffffffffffffff16815260200190815260200160002060006101000a81548173ffffffffffffffffffffffffffffffffffffffff021916908373ffffffffffffffffffffffffffffffffffffffff160217905550600760008273ffffffffffffffffffffffffffffffffffffffff1673ffffffffffffffffffffffffffffffffffffffff168152602001908152602001600020339080600181540180825580915050600190039060005260206000200160009091909190916101000a81548173ffffffffffffffffffffffffffffffffffffffff021916908373ffffffffffffffffffffffffffffffffffffffff160217905550600460003373ffffffffffffffffffffffffffffffffffffffff1673ffffffffffffffffffffffffffffffffffffffff16815260200190815260200160002054600860008373ffffffffffffffffffffffffffffffffffffffff1673ffffffffffffffffffffffffffffffffffffffff168152602001908152602001600020600082825461190b9190612a8c565b925050819055507f07c708873977ae64ae9b60d4d434f3a06427392f21683051cea69fbeb09f2fbe3382600460003373ffffffffffffffffffffffffffffffffffffffff1673ffffffffffffffffffffffffffffffffffffffff1681526020019081526020016000205460405161198493929190612c4f565b60405180910390a150565b6000600460003373ffffffffffffffffffffffffffffffffffffffff1673ffffffffffffffffffffffffffffffffffffffff1681526020019081526020016000205411611a11576040517f08c379a0000000000000000000000000000000000000000000000000000000008152600401611a0890612680565b60405180910390fd5b60006005600060036000815480929190611a2a90612dca565b91905055815260200190815260200160002090508787826000019182611a51929190612fee565b508585826001019182611a65929190612fee565b50838160020160006101000a81548173ffffffffffffffffffffffffffffffffffffffff021916908373ffffffffffffffffffffffffffffffffffffffff16021790555082816003018190555060008160070160006101000a81548160ff0219169083151502179055506201518082611ade91906130be565b42611ae99190612a8c565b81600801819055507f4c9472e4f5f2bd419ac4b5d05d084681c6e2db988579b0c05204c0eea14e6169600160036000815480929190611b2790612dca565b91905055611b359190612c1b565b89898989898989604051611b5098979695949392919061313c565b60405180910390a15050505050505050565b60046020528060005260406000206000915090505481565b600160149054906101000a900460ff16611bc9576040517f08c379a0000000000000000000000000000000000000000000000000000000008152600401611bc0906131fb565b60405180910390fd5b600160009054906101000a900473ffffffffffffffffffffffffffffffffffffffff1673ffffffffffffffffffffffffffffffffffffffff166323b872dd333060025485611c1791906130be565b6040518463ffffffff1660e01b8152600401611c3593929190612c4f565b6020604051808303816000875af1158015611c54573d6000803e3d6000fd5b505050506040513d601f19601f82011682018060405250810190611c7891906127ee565b611cb7576040517f08c379a0000000000000000000000000000000000000000000000000000000008152600401611cae90612867565b60405180910390fd5b80600460003373ffffffffffffffffffffffffffffffffffffffff1673ffffffffffffffffffffffffffffffffffffffff1681526020019081526020016000206000828254611d069190612a8c565b925050819055507f4ada3e4e678c9a929d2c6af442e499e9eaf730193272daf0ea4324c1b76fb6c33382604051611d3e92919061321b565b60405180910390a150565b60086020528060005260406000206000915090505481565b60035481565b611d6f611e13565b600073ffffffffffffffffffffffffffffffffffffffff168173ffffffffffffffffffffffffffffffffffffffff1603611de15760006040517f1e4fbdf7000000000000000000000000000000000000000000000000000000008152600401611dd891906121f6565b60405180910390fd5b611dea81611e9a565b50565b600160009054906101000a900473ffffffffffffffffffffffffffffffffffffffff1681565b611e1b611f5e565b73ffffffffffffffffffffffffffffffffffffffff16611e396109bf565b73ffffffffffffffffffffffffffffffffffffffff1614611e9857611e5c611f5e565b6040517f118cdaa7000000000000000000000000000000000000000000000000000000008152600401611e8f91906121f6565b60405180910390fd5b565b60008060009054906101000a900473ffffffffffffffffffffffffffffffffffffffff169050816000806101000a81548173ffffffffffffffffffffffffffffffffffffffff021916908373ffffffffffffffffffffffffffffffffffffffff1602179055508173ffffffffffffffffffffffffffffffffffffffff168173ffffffffffffffffffffffffffffffffffffffff167f8be0079c531659141344cd1fd0a4f28419497f9722a3daafe3b4186f6b6457e060405160405180910390a35050565b600033905090565b600080fd5b600080fd5b6000819050919050565b611f8381611f70565b8114611f8e57600080fd5b50565b600081359050611fa081611f7a565b92915050565b600060208284031215611fbc57611fbb611f66565b5b6000611fca84828501611f91565b91505092915050565b600081519050919050565b600082825260208201905092915050565b60005b8381101561200d578082015181840152602081019050611ff2565b60008484015250505050565b6000601f19601f8301169050919050565b600061203582611fd3565b61203f8185611fde565b935061204f818560208601611fef565b61205881612019565b840191505092915050565b600073ffffffffffffffffffffffffffffffffffffffff82169050919050565b600061208e82612063565b9050919050565b61209e81612083565b82525050565b6120ad81611f70565b82525050565b60008115159050919050565b6120c8816120b3565b82525050565b60006101208201905081810360008301526120e9818c61202a565b905081810360208301526120fd818b61202a565b905061210c604083018a612095565b61211960608301896120a4565b61212660808301886120a4565b61213360a08301876120a4565b61214060c08301866120a4565b61214d60e08301856120bf565b61215b6101008301846120a4565b9a9950505050505050505050565b600061217482612063565b9050919050565b61218481612169565b811461218f57600080fd5b50565b6000813590506121a18161217b565b92915050565b600080604083850312156121be576121bd611f66565b5b60006121cc85828601612192565b92505060206121dd85828601611f91565b9150509250929050565b6121f081612169565b82525050565b600060208201905061220b60008301846121e7565b92915050565b6000806040838503121561222857612227611f66565b5b600061223685828601611f91565b925050602061224785828601612192565b9150509250929050565b600060208201905061226660008301846120bf565b92915050565b60006020828403121561228257612281611f66565b5b600061229084828501612192565b91505092915050565b600060ff82169050919050565b6122af81612299565b81146122ba57600080fd5b50565b6000813590506122cc816122a6565b92915050565b600080604083850312156122e9576122e8611f66565b5b60006122f785828601611f91565b9250506020612308858286016122bd565b9150509250929050565b600060208201905061232760008301846120a4565b92915050565b600081519050919050565b600082825260208201905092915050565b6000819050602082019050919050565b61236281612169565b82525050565b60006123748383612359565b60208301905092915050565b6000602082019050919050565b60006123988261232d565b6123a28185612338565b93506123ad83612349565b8060005b838110156123de5781516123c58882612368565b97506123d083612380565b9250506001810190506123b1565b5085935050505092915050565b60006020820190508181036000830152612405818461238d565b905092915050565b600080fd5b600080fd5b600080fd5b60008083601f8401126124325761243161240d565b5b8235905067ffffffffffffffff81111561244f5761244e612412565b5b60208301915083600182028301111561246b5761246a612417565b5b9250929050565b61247b81612083565b811461248657600080fd5b50565b60008135905061249881612472565b92915050565b600080600080600080600060a0888a0312156124bd576124bc611f66565b5b600088013567ffffffffffffffff8111156124db576124da611f6b565b5b6124e78a828b0161241c565b9750975050602088013567ffffffffffffffff81111561250a57612509611f6b565b5b6125168a828b0161241c565b955095505060406125298a828b01612489565b935050606061253a8a828b01611f91565b925050608061254b8a828b01611f91565b91505092959891949750929550565b6000819050919050565b600061257f61257a61257584612063565b61255a565b612063565b9050919050565b600061259182612564565b9050919050565b60006125a382612586565b9050919050565b6125b381612598565b82525050565b60006020820190506125ce60008301846125aa565b92915050565b7f4e487b7100000000000000000000000000000000000000000000000000000000600052602260045260246000fd5b6000600282049050600182168061261b57607f821691505b60208210810361262e5761262d6125d4565b5b50919050565b7f4e6f7420612044414f206d656d62657200000000000000000000000000000000600082015250565b600061266a601083611fde565b915061267582612634565b602082019050919050565b600060208201905081810360008301526126998161265d565b9050919050565b7f566f74696e67207374696c6c2061637469766500000000000000000000000000600082015250565b60006126d6601383611fde565b91506126e1826126a0565b602082019050919050565b60006020820190508181036000830152612705816126c9565b9050919050565b7f50726f706f73616c20616c726561647920657865637574656400000000000000600082015250565b6000612742601983611fde565b915061274d8261270c565b602082019050919050565b6000602082019050818103600083015261277181612735565b9050919050565b600061278382612586565b9050919050565b61279381612778565b82525050565b60006040820190506127ae600083018561278a565b6127bb60208301846120a4565b9392505050565b6127cb816120b3565b81146127d657600080fd5b50565b6000815190506127e8816127c2565b92915050565b60006020828403121561280457612803611f66565b5b6000612812848285016127d9565b91505092915050565b7f546f6b656e207472616e73666572206661696c65640000000000000000000000600082015250565b6000612851601583611fde565b915061285c8261281b565b602082019050919050565b6000602082019050818103600083015261288081612844565b9050919050565b7f496e76616c69642070726f706f73616c20494400000000000000000000000000600082015250565b60006128bd601383611fde565b91506128c882612887565b602082019050919050565b600060208201905081810360008301526128ec816128b0565b9050919050565b7f566f74696e6720706572696f64206964206f7665720000000000000000000000600082015250565b6000612929601583611fde565b9150612934826128f3565b602082019050919050565b600060208201905081810360008301526129588161291c565b9050919050565b7f416c726561647920766f74656400000000000000000000000000000000000000600082015250565b6000612995600d83611fde565b91506129a08261295f565b602082019050919050565b600060208201905081810360008301526129c481612988565b9050919050565b7f596f7520686176652064656c65676174656420796f757220766f74652c20636160008201527f6e6e6f7420766f7465206469726563746c790000000000000000000000000000602082015250565b6000612a27603283611fde565b9150612a32826129cb565b604082019050919050565b60006020820190508181036000830152612a5681612a1a565b9050919050565b7f4e487b7100000000000000000000000000000000000000000000000000000000600052601160045260246000fd5b6000612a9782611f70565b9150612aa283611f70565b9250828201905080821115612aba57612ab9612a5d565b5b92915050565b7f4e487b7100000000000000000000000000000000000000000000000000000000600052603260045260246000fd5b612af881612299565b82525050565b6000608082019050612b1360008301876120a4565b612b2060208301866121e7565b612b2d6040830185612aef565b612b3a60608301846120a4565b95945050505050565b7f496e76616c696420766f7465206f7074696f6e00000000000000000000000000600082015250565b6000612b79601383611fde565b9150612b8482612b43565b602082019050919050565b60006020820190508181036000830152612ba881612b6c565b9050919050565b7f4e6f206163746976652064656c65676174696f6e000000000000000000000000600082015250565b6000612be5601483611fde565b9150612bf082612baf565b602082019050919050565b60006020820190508181036000830152612c1481612bd8565b9050919050565b6000612c2682611f70565b9150612c3183611f70565b9250828203905081811115612c4957612c48612a5d565b5b92915050565b6000606082019050612c6460008301866121e7565b612c7160208301856121e7565b612c7e60408301846120a4565b949350505050565b7f43616e6e6f742064656c656761746520746f20796f757273656c660000000000600082015250565b6000612cbc601b83611fde565b9150612cc782612c86565b602082019050919050565b60006020820190508181036000830152612ceb81612caf565b9050919050565b7f44656c6567617465206d7573742062652061206d656d62657200000000000000600082015250565b6000612d28601983611fde565b9150612d3382612cf2565b602082019050919050565b60006020820190508181036000830152612d5781612d1b565b9050919050565b7f416c72656164792064656c656761746564000000000000000000000000000000600082015250565b6000612d94601183611fde565b9150612d9f82612d5e565b602082019050919050565b60006020820190508181036000830152612dc381612d87565b9050919050565b6000612dd582611f70565b91507fffffffffffffffffffffffffffffffffffffffffffffffffffffffffffffffff8203612e0757612e06612a5d565b5b600182019050919050565b600082905092915050565b7f4e487b7100000000000000000000000000000000000000000000000000000000600052604160045260246000fd5b60008190508160005260206000209050919050565b60006020601f8301049050919050565b600082821b905092915050565b600060088302612eae7fffffffffffffffffffffffffffffffffffffffffffffffffffffffffffffffff82612e71565b612eb88683612e71565b95508019841693508086168417925050509392505050565b6000612eeb612ee6612ee184611f70565b61255a565b611f70565b9050919050565b6000819050919050565b612f0583612ed0565b612f19612f1182612ef2565b848454612e7e565b825550505050565b600090565b612f2e612f21565b612f39818484612efc565b505050565b5b81811015612f5d57612f52600082612f26565b600181019050612f3f565b5050565b601f821115612fa257612f7381612e4c565b612f7c84612e61565b81016020851015612f8b578190505b612f9f612f9785612e61565b830182612f3e565b50505b505050565b600082821c905092915050565b6000612fc560001984600802612fa7565b1980831691505092915050565b6000612fde8383612fb4565b9150826002028217905092915050565b612ff88383612e12565b67ffffffffffffffff81111561301157613010612e1d565b5b61301b8254612603565b613026828285612f61565b6000601f8311600181146130555760008415613043578287013590505b61304d8582612fd2565b8655506130b5565b601f19841661306386612e4c565b60005b8281101561308b57848901358255600182019150602085019450602081019050613066565b868310156130a857848901356130a4601f891682612fb4565b8355505b6001600288020188555050505b50505050505050565b60006130c982611f70565b91506130d483611f70565b92508282026130e281611f70565b915082820484148315176130f9576130f8612a5d565b5b5092915050565b82818337600083830152505050565b600061311b8385611fde565b9350613128838584613100565b61313183612019565b840190509392505050565b600060c082019050613151600083018b6120a4565b818103602083015261316481898b61310f565b9050818103604083015261317981878961310f565b9050613188606083018661278a565b61319560808301856120a4565b6131a260a08301846120a4565b9998505050505050505050565b7f546f6b656e2073616c6520697320636c6f736564000000000000000000000000600082015250565b60006131e5601483611fde565b91506131f0826131af565b602082019050919050565b60006020820190508181036000830152613214816131d8565b9050919050565b600060408201905061323060008301856121e7565b61323d60208301846120a4565b939250505056fea26469706673582212204eae1ce2b761bc1c2ab490c2aa8b2db63fd9ccf92a6ab1bd786fcd88e2eafdb364736f6c634300081b0033",
  "linkReferences": {},
  "deployedLinkReferences": {}
}