{
  "contracts/DAO.sol": {
    "DAO": {
      "abi": [
        {
          "inputs": [
            {
              "internalType": "contract IERC20",
              "name": "_token",
              "type": "address"
            },
            {
              "internalType": "uint256",
              "name": "_pricePerShare",
              "type": "uint256"
            }
          ],
          "stateMutability": "nonpayable",
          "type": "constructor"
        },
        {
          "inputs": [
            {
              "internalType": "address",
              "name": "owner",
              "type": "address"
            }
          ],
          "name": "OwnableInvalidOwner",
          "type": "error"
        },
        {
          "inputs": [
            {
              "internalType": "address",
              "name": "account",
              "type": "address"
            }
          ],
          "name": "OwnableUnauthorizedAccount",
          "type": "error"
        },
        {
          "anonymous": false,
          "inputs": [
            {
              "indexed": false,
              "internalType": "address",
              "name": "delegate",
              "type": "address"
            },
            {
              "indexed": false,
              "internalType": "address",
              "name": "delegator",
              "type": "address"
            },
            {
              "indexed": false,
              "internalType": "uint256",
              "name": "amount",
              "type": "uint256"
            }
          ],
          "name": "DelegateShares",
          "type": "event"
        },
        {
          "anonymous": false,
          "inputs": [
            {
              "indexed": false,
              "internalType": "address",
              "name": "delegate",
              "type": "address"
            },
            {
              "indexed": false,
              "internalType": "address",
              "name": "delegator",
              "type": "address"
            },
            {
              "indexed": false,
              "internalType": "uint256",
              "name": "amount",
              "type": "uint256"
            }
          ],
          "name": "DelegationRevoked",
          "type": "event"
        },
        {
          "anonymous": false,
          "inputs": [
            {
              "indexed": true,
              "internalType": "address",
              "name": "previousOwner",
              "type": "address"
            },
            {
              "indexed": true,
              "internalType": "address",
              "name": "newOwner",
              "type": "address"
            }
          ],
          "name": "OwnershipTransferred",
          "type": "event"
        },
        {
          "anonymous": false,
          "inputs": [
            {
              "indexed": false,
              "internalType": "uint256",
              "name": "proposalId",
              "type": "uint256"
            },
            {
              "indexed": false,
              "internalType": "string",
              "name": "title",
              "type": "string"
            },
            {
              "indexed": false,
              "internalType": "string",
              "name": "description",
              "type": "string"
            },
            {
              "indexed": false,
              "internalType": "address",
              "name": "recipient",
              "type": "address"
            },
            {
              "indexed": false,
              "internalType": "uint256",
              "name": "amount",
              "type": "uint256"
            },
            {
              "indexed": false,
              "internalType": "uint256",
              "name": "votingPeriod",
              "type": "uint256"
            }
          ],
          "name": "ProposalCreated",
          "type": "event"
        },
        {
          "anonymous": false,
          "inputs": [
            {
              "indexed": false,
              "internalType": "uint256",
              "name": "proposalId",
              "type": "uint256"
            }
          ],
          "name": "ProposalExecuted",
          "type": "event"
        },
        {
          "anonymous": false,
          "inputs": [
            {
              "indexed": false,
              "internalType": "address",
              "name": "buyer",
              "type": "address"
            },
            {
              "indexed": false,
              "internalType": "uint256",
              "name": "amount",
              "type": "uint256"
            }
          ],
          "name": "ShareBought",
          "type": "event"
        },
        {
          "anonymous": false,
          "inputs": [
            {
              "indexed": false,
              "internalType": "uint256",
              "name": "proposalId",
              "type": "uint256"
            },
            {
              "indexed": false,
              "internalType": "address",
              "name": "voter",
              "type": "address"
            },
            {
              "indexed": false,
              "internalType": "uint8",
              "name": "voteOption",
              "type": "uint8"
            },
            {
              "indexed": false,
              "internalType": "uint256",
              "name": "amount",
              "type": "uint256"
            }
          ],
          "name": "VotedProposal",
          "type": "event"
        },
        {
          "inputs": [
            {
              "internalType": "uint256",
              "name": "amount",
              "type": "uint256"
            }
          ],
          "name": "buyShares",
          "outputs": [],
          "stateMutability": "nonpayable",
          "type": "function"
        },
        {
          "inputs": [
            {
              "internalType": "address",
              "name": "",
              "type": "address"
            }
          ],
          "name": "delegate",
          "outputs": [
            {
              "internalType": "address",
              "name": "",
              "type": "address"
            }
          ],
          "stateMutability": "view",
          "type": "function"
        },
        {
          "inputs": [
            {
              "internalType": "address",
              "name": "to",
              "type": "address"
            }
          ],
          "name": "delegateVote",
          "outputs": [],
          "stateMutability": "nonpayable",
          "type": "function"
        },
        {
          "inputs": [
            {
              "internalType": "address",
              "name": "",
              "type": "address"
            }
          ],
          "name": "delegatedVotes",
          "outputs": [
            {
              "internalType": "uint256",
              "name": "",
              "type": "uint256"
            }
          ],
          "stateMutability": "view",
          "type": "function"
        },
        {
          "inputs": [
            {
              "internalType": "address",
              "name": "",
              "type": "address"
            },
            {
              "internalType": "uint256",
              "name": "",
              "type": "uint256"
            }
          ],
          "name": "delegator",
          "outputs": [
            {
              "internalType": "address",
              "name": "",
              "type": "address"
            }
          ],
          "stateMutability": "view",
          "type": "function"
        },
        {
          "inputs": [],
          "name": "endSale",
          "outputs": [],
          "stateMutability": "nonpayable",
          "type": "function"
        },
        {
          "inputs": [
            {
              "internalType": "uint256",
              "name": "proposalId",
              "type": "uint256"
            }
          ],
          "name": "executeProposal",
          "outputs": [],
          "stateMutability": "nonpayable",
          "type": "function"
        },
        {
          "inputs": [
            {
              "internalType": "address",
              "name": "_delegator",
              "type": "address"
            }
          ],
          "name": "getDelegator",
          "outputs": [
            {
              "internalType": "address[]",
              "name": "",
              "type": "address[]"
            }
          ],
          "stateMutability": "view",
          "type": "function"
        },
        {
          "inputs": [
            {
              "internalType": "uint256",
              "name": "proposalId",
              "type": "uint256"
            },
            {
              "internalType": "address",
              "name": "voter",
              "type": "address"
            }
          ],
          "name": "hasVoted",
          "outputs": [
            {
              "internalType": "bool",
              "name": "",
              "type": "bool"
            }
          ],
          "stateMutability": "view",
          "type": "function"
        },
        {
          "inputs": [],
          "name": "owner",
          "outputs": [
            {
              "internalType": "address",
              "name": "",
              "type": "address"
            }
          ],
          "stateMutability": "view",
          "type": "function"
        },
        {
          "inputs": [],
          "name": "pricePerShare",
          "outputs": [
            {
              "internalType": "uint256",
              "name": "",
              "type": "uint256"
            }
          ],
          "stateMutability": "view",
          "type": "function"
        },
        {
          "inputs": [],
          "name": "proposalCount",
          "outputs": [
            {
              "internalType": "uint256",
              "name": "",
              "type": "uint256"
            }
          ],
          "stateMutability": "view",
          "type": "function"
        },
        {
          "inputs": [
            {
              "internalType": "uint256",
              "name": "",
              "type": "uint256"
            }
          ],
          "name": "proposals",
          "outputs": [
            {
              "internalType": "string",
              "name": "title",
              "type": "string"
            },
            {
              "internalType": "string",
              "name": "description",
              "type": "string"
            },
            {
              "internalType": "address payable",
              "name": "recipient",
              "type": "address"
            },
            {
              "internalType": "uint256",
              "name": "amount",
              "type": "uint256"
            },
            {
              "internalType": "uint256",
              "name": "votesFor",
              "type": "uint256"
            },
            {
              "internalType": "uint256",
              "name": "votesAgainst",
              "type": "uint256"
            },
            {
              "internalType": "uint256",
              "name": "votesAbstain",
              "type": "uint256"
            },
            {
              "internalType": "bool",
              "name": "executed",
              "type": "bool"
            },
            {
              "internalType": "uint256",
              "name": "endTime",
              "type": "uint256"
            }
          ],
          "stateMutability": "view",
          "type": "function"
        },
        {
          "inputs": [
            {
              "internalType": "string",
              "name": "_title",
              "type": "string"
            },
            {
              "internalType": "string",
              "name": "_description",
              "type": "string"
            },
            {
              "internalType": "address payable",
              "name": "_recipient",
              "type": "address"
            },
            {
              "internalType": "uint256",
              "name": "_amount",
              "type": "uint256"
            },
            {
              "internalType": "uint256",
              "name": "_votingPeriod",
              "type": "uint256"
            }
          ],
          "name": "proposeDecision",
          "outputs": [],
          "stateMutability": "nonpayable",
          "type": "function"
        },
        {
          "inputs": [],
          "name": "renounceOwnership",
          "outputs": [],
          "stateMutability": "nonpayable",
          "type": "function"
        },
        {
          "inputs": [],
          "name": "revokeDelegation",
          "outputs": [],
          "stateMutability": "nonpayable",
          "type": "function"
        },
        {
          "inputs": [],
          "name": "saleActive",
          "outputs": [
            {
              "internalType": "bool",
              "name": "",
              "type": "bool"
            }
          ],
          "stateMutability": "view",
          "type": "function"
        },
        {
          "inputs": [
            {
              "internalType": "address",
              "name": "",
              "type": "address"
            }
          ],
          "name": "shares",
          "outputs": [
            {
              "internalType": "uint256",
              "name": "",
              "type": "uint256"
            }
          ],
          "stateMutability": "view",
          "type": "function"
        },
        {
          "inputs": [],
          "name": "token",
          "outputs": [
            {
              "internalType": "contract IERC20",
              "name": "",
              "type": "address"
            }
          ],
          "stateMutability": "view",
          "type": "function"
        },
        {
          "inputs": [
            {
              "internalType": "address",
              "name": "newOwner",
              "type": "address"
            }
          ],
          "name": "transferOwnership",
          "outputs": [],
          "stateMutability": "nonpayable",
          "type": "function"
        },
        {
          "inputs": [
            {
              "internalType": "uint256",
              "name": "proposalId",
              "type": "uint256"
            },
            {
              "internalType": "uint8",
              "name": "voteOption",
              "type": "uint8"
            }
          ],
          "name": "vote",
          "outputs": [],
          "stateMutability": "nonpayable",
          "type": "function"
        }
      ],
      "evm": {
        "bytecode": {
          "linkReferences": {},
          "object": "608060405260018060146101000a81548160ff02191690831515021790555034801561002a57600080fd5b50604051613580380380613580833981810160405281019061004c919061028d565b33600073ffffffffffffffffffffffffffffffffffffffff168173ffffffffffffffffffffffffffffffffffffffff16036100bf5760006040517f1e4fbdf70000000000000000000000000000000000000000000000000000000081526004016100b691906102dc565b60405180910390fd5b6100ce8161011e60201b60201c565b5081600160006101000a81548173ffffffffffffffffffffffffffffffffffffffff021916908373ffffffffffffffffffffffffffffffffffffffff1602179055508060028190555050506102f7565b60008060009054906101000a900473ffffffffffffffffffffffffffffffffffffffff169050816000806101000a81548173ffffffffffffffffffffffffffffffffffffffff021916908373ffffffffffffffffffffffffffffffffffffffff1602179055508173ffffffffffffffffffffffffffffffffffffffff168173ffffffffffffffffffffffffffffffffffffffff167f8be0079c531659141344cd1fd0a4f28419497f9722a3daafe3b4186f6b6457e060405160405180910390a35050565b600080fd5b600073ffffffffffffffffffffffffffffffffffffffff82169050919050565b6000610212826101e7565b9050919050565b600061022482610207565b9050919050565b61023481610219565b811461023f57600080fd5b50565b6000815190506102518161022b565b92915050565b6000819050919050565b61026a81610257565b811461027557600080fd5b50565b60008151905061028781610261565b92915050565b600080604083850312156102a4576102a36101e2565b5b60006102b285828601610242565b92505060206102c385828601610278565b9150509250929050565b6102d681610207565b82525050565b60006020820190506102f160008301846102cd565b92915050565b61327a806103066000396000f3fe608060405234801561001057600080fd5b50600436106101375760003560e01c806399530b06116100b8578063ce7c2ac21161007c578063ce7c2ac21461031c578063d1a93d181461034c578063d364d4d414610368578063da35c66414610398578063f2fde38b146103b6578063fc0c546a146103d257610137565b806399530b061461028c578063a4d31805146102aa578063a64ad595146102b4578063b31e1d4d146102e4578063c062b4061461030057610137565b80635c19a95c116100ff5780635c19a95c146101fa57806368428a1b1461022a578063715018a6146102485780638da5cb5b14610252578063943e82161461027057610137565b8063013cf08b1461013c5780630d61b519146101745780631174d00114610190578063380d831b146101c057806343859632146101ca575b600080fd5b61015660048036038101906101519190611fa6565b6103f0565b60405161016b999897969594939291906120ce565b60405180910390f35b61018e60048036038101906101899190611fa6565b61057b565b005b6101aa60048036038101906101a591906121a7565b610887565b6040516101b791906121f6565b60405180910390f35b6101c86108d5565b005b6101e460048036038101906101df9190612211565b6108fa565b6040516101f19190612251565b60405180910390f35b610214600480360381019061020f919061226c565b610965565b60405161022191906121f6565b60405180910390f35b610232610998565b60405161023f9190612251565b60405180910390f35b6102506109ab565b005b61025a6109bf565b60405161026791906121f6565b60405180910390f35b61028a600480360381019061028591906122d2565b6109e8565b005b610294610ffb565b6040516102a19190612312565b60405180910390f35b6102b2611001565b005b6102ce60048036038101906102c9919061226c565b611452565b6040516102db91906123eb565b60405180910390f35b6102fe60048036038101906102f9919061226c565b61151f565b005b61031a6004803603810190610315919061249e565b61198f565b005b6103366004803603810190610331919061226c565b611b62565b6040516103439190612312565b60405180910390f35b61036660048036038101906103619190611fa6565b611b7a565b005b610382600480360381019061037d919061226c565b611d49565b60405161038f9190612312565b60405180910390f35b6103a0611d61565b6040516103ad9190612312565b60405180910390f35b6103d060048036038101906103cb919061226c565b611d67565b005b6103da611ded565b6040516103e791906125b9565b60405180910390f35b600560205280600052604060002060009150905080600001805461041390612603565b80601f016020809104026020016040519081016040528092919081815260200182805461043f90612603565b801561048c5780601f106104615761010080835404028352916020019161048c565b820191906000526020600020905b81548152906001019060200180831161046f57829003601f168201915b5050505050908060010180546104a190612603565b80601f01602080910402602001604051908101604052809291908181526020018280546104cd90612603565b801561051a5780601f106104ef5761010080835404028352916020019161051a565b820191906000526020600020905b8154815290600101906020018083116104fd57829003601f168201915b5050505050908060020160009054906101000a900473ffffffffffffffffffffffffffffffffffffffff16908060030154908060040154908060050154908060060154908060070160009054906101000a900460ff16908060080154905089565b6000600460003373ffffffffffffffffffffffffffffffffffffffff1673ffffffffffffffffffffffffffffffffffffffff16815260200190815260200160002054116105fd576040517f08c379a00000000000000000000000000000000000000000000000000000000081526004016105f490612680565b60405180910390fd5b60006005600083815260200190815260200160002090504281600801541061065a576040517f08c379a0000000000000000000000000000000000000000000000000000000008152600401610651906126ec565b60405180910390fd5b8060070160009054906101000a900460ff16156106ac576040517f08c379a00000000000000000000000000000000000000000000000000000000081526004016106a390612758565b60405180910390fd5b60018160070160006101000a81548160ff02191690831515021790555080600501548160040154111561084c57600073ffffffffffffffffffffffffffffffffffffffff168160020160009054906101000a900473ffffffffffffffffffffffffffffffffffffffff1673ffffffffffffffffffffffffffffffffffffffff161415801561073e575060008160030154115b1561084b57600160009054906101000a900473ffffffffffffffffffffffffffffffffffffffff1673ffffffffffffffffffffffffffffffffffffffff1663a9059cbb8260020160009054906101000a900473ffffffffffffffffffffffffffffffffffffffff1683600301546040518363ffffffff1660e01b81526004016107c8929190612799565b6020604051808303816000875af11580156107e7573d6000803e3d6000fd5b505050506040513d601f19601f8201168201806040525081019061080b91906127ee565b61084a576040517f08c379a000000000000000000000000000000000000000000000000000000000815260040161084190612867565b60405180910390fd5b5b5b7f712ae1383f79ac853f8d882153778e0260ef8f03b504e2866e0593e04d2b291f8260405161087b9190612312565b60405180910390a15050565b600760205281600052604060002081815481106108a357600080fd5b906000526020600020016000915091509054906101000a900473ffffffffffffffffffffffffffffffffffffffff1681565b6108dd611e13565b6000600160146101000a81548160ff021916908315150217905550565b60006005600084815260200190815260200160002060090160008373ffffffffffffffffffffffffffffffffffffffff1673ffffffffffffffffffffffffffffffffffffffff16815260200190815260200160002060009054906101000a900460ff16905092915050565b60066020528060005260406000206000915054906101000a900473ffffffffffffffffffffffffffffffffffffffff1681565b600160149054906101000a900460ff1681565b6109b3611e13565b6109bd6000611e9a565b565b60008060009054906101000a900473ffffffffffffffffffffffffffffffffffffffff16905090565b6000600460003373ffffffffffffffffffffffffffffffffffffffff1673ffffffffffffffffffffffffffffffffffffffff1681526020019081526020016000205411610a6a576040517f08c379a0000000000000000000000000000000000000000000000000000000008152600401610a6190612680565b60405180910390fd5b60006005600084815260200190815260200160002090506003548310610ac5576040517f08c379a0000000000000000000000000000000000000000000000000000000008152600401610abc906128d3565b60405180910390fd5b42816008015411610b0b576040517f08c379a0000000000000000000000000000000000000000000000000000000008152600401610b029061293f565b60405180910390fd5b8060090160003373ffffffffffffffffffffffffffffffffffffffff1673ffffffffffffffffffffffffffffffffffffffff16815260200190815260200160002060009054906101000a900460ff1615610b9a576040517f08c379a0000000000000000000000000000000000000000000000000000000008152600401610b91906129ab565b60405180910390fd5b600073ffffffffffffffffffffffffffffffffffffffff16600660003373ffffffffffffffffffffffffffffffffffffffff1673ffffffffffffffffffffffffffffffffffffffff16815260200190815260200160002060009054906101000a900473ffffffffffffffffffffffffffffffffffffffff1673ffffffffffffffffffffffffffffffffffffffff1614610c68576040517f08c379a0000000000000000000000000000000000000000000000000000000008152600401610c5f90612a3d565b60405180910390fd5b6000600860003373ffffffffffffffffffffffffffffffffffffffff1673ffffffffffffffffffffffffffffffffffffffff16815260200190815260200160002054600460003373ffffffffffffffffffffffffffffffffffffffff1673ffffffffffffffffffffffffffffffffffffffff16815260200190815260200160002054610cf49190612a8c565b905060018260090160003373ffffffffffffffffffffffffffffffffffffffff1673ffffffffffffffffffffffffffffffffffffffff16815260200190815260200160002060006101000a81548160ff02191690831515021790555060005b600760003373ffffffffffffffffffffffffffffffffffffffff1673ffffffffffffffffffffffffffffffffffffffff16815260200190815260200160002080549050811015610e7f576001836009016000600760003373ffffffffffffffffffffffffffffffffffffffff1673ffffffffffffffffffffffffffffffffffffffff1681526020019081526020016000208481548110610df657610df5612ac0565b5b9060005260206000200160009054906101000a900473ffffffffffffffffffffffffffffffffffffffff1673ffffffffffffffffffffffffffffffffffffffff1673ffffffffffffffffffffffffffffffffffffffff16815260200190815260200160002060006101000a81548160ff0219169083151502179055508080600101915050610d53565b5060018360ff1603610ee85780826004016000828254610e9f9190612a8c565b925050819055507f7d0367786ce6429605e65845cf8b169c4091eef599b133add5762573bc600c2b84338584604051610edb9493929190612afe565b60405180910390a1610ff5565b60028360ff1603610f505780826005016000828254610f079190612a8c565b925050819055507f7d0367786ce6429605e65845cf8b169c4091eef599b133add5762573bc600c2b84338584604051610f439493929190612afe565b60405180910390a1610ff4565b60038360ff1603610fb85780826006016000828254610f6f9190612a8c565b925050819055507f7d0367786ce6429605e65845cf8b169c4091eef599b133add5762573bc600c2b84338584604051610fab9493929190612afe565b60405180910390a1610ff3565b6040517f08c379a0000000000000000000000000000000000000000000000000000000008152600401610fea90612b8f565b60405180910390fd5b5b5b50505050565b60025481565b6000600460003373ffffffffffffffffffffffffffffffffffffffff1673ffffffffffffffffffffffffffffffffffffffff1681526020019081526020016000205411611083576040517f08c379a000000000000000000000000000000000000000000000000000000000815260040161107a90612680565b60405180910390fd5b6000600660003373ffffffffffffffffffffffffffffffffffffffff1673ffffffffffffffffffffffffffffffffffffffff16815260200190815260200160002060009054906101000a900473ffffffffffffffffffffffffffffffffffffffff169050600073ffffffffffffffffffffffffffffffffffffffff168173ffffffffffffffffffffffffffffffffffffffff1603611156576040517f08c379a000000000000000000000000000000000000000000000000000000000815260040161114d90612bfb565b60405180910390fd5b600460003373ffffffffffffffffffffffffffffffffffffffff1673ffffffffffffffffffffffffffffffffffffffff16815260200190815260200160002054600860008373ffffffffffffffffffffffffffffffffffffffff1673ffffffffffffffffffffffffffffffffffffffff16815260200190815260200160002060008282546111e49190612c1b565b92505081905550600660003373ffffffffffffffffffffffffffffffffffffffff1673ffffffffffffffffffffffffffffffffffffffff16815260200190815260200160002060006101000a81549073ffffffffffffffffffffffffffffffffffffffff021916905560005b600760008373ffffffffffffffffffffffffffffffffffffffff1673ffffffffffffffffffffffffffffffffffffffff168152602001908152602001600020805490508110156113d4573373ffffffffffffffffffffffffffffffffffffffff16600760008473ffffffffffffffffffffffffffffffffffffffff1673ffffffffffffffffffffffffffffffffffffffff168152602001908152602001600020828154811061130257611301612ac0565b5b9060005260206000200160009054906101000a900473ffffffffffffffffffffffffffffffffffffffff1673ffffffffffffffffffffffffffffffffffffffff16036113c757600760008373ffffffffffffffffffffffffffffffffffffffff1673ffffffffffffffffffffffffffffffffffffffff168152602001908152602001600020818154811061139957611398612ac0565b5b9060005260206000200160006101000a81549073ffffffffffffffffffffffffffffffffffffffff02191690555b8080600101915050611250565b507f8804646c776ee4e91100fb6859354b09a479e5b7fceaa9c7c7364e7d63a1bc813382600460003373ffffffffffffffffffffffffffffffffffffffff1673ffffffffffffffffffffffffffffffffffffffff1681526020019081526020016000205460405161144793929190612c4f565b60405180910390a150565b6060600760008373ffffffffffffffffffffffffffffffffffffffff1673ffffffffffffffffffffffffffffffffffffffff16815260200190815260200160002080548060200260200160405190810160405280929190818152602001828054801561151357602002820191906000526020600020905b8160009054906101000a900473ffffffffffffffffffffffffffffffffffffffff1673ffffffffffffffffffffffffffffffffffffffff16815260200190600101908083116114c9575b50505050509050919050565b6000600460003373ffffffffffffffffffffffffffffffffffffffff1673ffffffffffffffffffffffffffffffffffffffff16815260200190815260200160002054116115a1576040517f08c379a000000000000000000000000000000000000000000000000000000000815260040161159890612680565b60405180910390fd5b3373ffffffffffffffffffffffffffffffffffffffff168173ffffffffffffffffffffffffffffffffffffffff160361160f576040517f08c379a000000000000000000000000000000000000000000000000000000000815260040161160690612cd2565b60405180910390fd5b6000600460008373ffffffffffffffffffffffffffffffffffffffff1673ffffffffffffffffffffffffffffffffffffffff1681526020019081526020016000205411611691576040517f08c379a000000000000000000000000000000000000000000000000000000000815260040161168890612d3e565b60405180910390fd5b600073ffffffffffffffffffffffffffffffffffffffff16600660003373ffffffffffffffffffffffffffffffffffffffff1673ffffffffffffffffffffffffffffffffffffffff16815260200190815260200160002060009054906101000a900473ffffffffffffffffffffffffffffffffffffffff1673ffffffffffffffffffffffffffffffffffffffff161461175f576040517f08c379a000000000000000000000000000000000000000000000000000000000815260040161175690612daa565b60405180910390fd5b80600660003373ffffffffffffffffffffffffffffffffffffffff1673ffffffffffffffffffffffffffffffffffffffff16815260200190815260200160002060006101000a81548173ffffffffffffffffffffffffffffffffffffffff021916908373ffffffffffffffffffffffffffffffffffffffff160217905550600760008273ffffffffffffffffffffffffffffffffffffffff1673ffffffffffffffffffffffffffffffffffffffff168152602001908152602001600020339080600181540180825580915050600190039060005260206000200160009091909190916101000a81548173ffffffffffffffffffffffffffffffffffffffff021916908373ffffffffffffffffffffffffffffffffffffffff160217905550600460003373ffffffffffffffffffffffffffffffffffffffff1673ffffffffffffffffffffffffffffffffffffffff16815260200190815260200160002054600860008373ffffffffffffffffffffffffffffffffffffffff1673ffffffffffffffffffffffffffffffffffffffff168152602001908152602001600020600082825461190b9190612a8c565b925050819055507f07c708873977ae64ae9b60d4d434f3a06427392f21683051cea69fbeb09f2fbe3382600460003373ffffffffffffffffffffffffffffffffffffffff1673ffffffffffffffffffffffffffffffffffffffff1681526020019081526020016000205460405161198493929190612c4f565b60405180910390a150565b6000600460003373ffffffffffffffffffffffffffffffffffffffff1673ffffffffffffffffffffffffffffffffffffffff1681526020019081526020016000205411611a11576040517f08c379a0000000000000000000000000000000000000000000000000000000008152600401611a0890612680565b60405180910390fd5b60006005600060036000815480929190611a2a90612dca565b91905055815260200190815260200160002090508787826000019182611a51929190612fee565b508585826001019182611a65929190612fee565b50838160020160006101000a81548173ffffffffffffffffffffffffffffffffffffffff021916908373ffffffffffffffffffffffffffffffffffffffff16021790555082816003018190555060008160070160006101000a81548160ff0219169083151502179055506201518082611ade91906130be565b42611ae99190612a8c565b81600801819055507f4c9472e4f5f2bd419ac4b5d05d084681c6e2db988579b0c05204c0eea14e6169600160036000815480929190611b2790612dca565b91905055611b359190612c1b565b89898989898989604051611b5098979695949392919061313c565b60405180910390a15050505050505050565b60046020528060005260406000206000915090505481565b600160149054906101000a900460ff16611bc9576040517f08c379a0000000000000000000000000000000000000000000000000000000008152600401611bc0906131fb565b60405180910390fd5b600160009054906101000a900473ffffffffffffffffffffffffffffffffffffffff1673ffffffffffffffffffffffffffffffffffffffff166323b872dd333060025485611c1791906130be565b6040518463ffffffff1660e01b8152600401611c3593929190612c4f565b6020604051808303816000875af1158015611c54573d6000803e3d6000fd5b505050506040513d601f19601f82011682018060405250810190611c7891906127ee565b611cb7576040517f08c379a0000000000000000000000000000000000000000000000000000000008152600401611cae90612867565b60405180910390fd5b80600460003373ffffffffffffffffffffffffffffffffffffffff1673ffffffffffffffffffffffffffffffffffffffff1681526020019081526020016000206000828254611d069190612a8c565b925050819055507f4ada3e4e678c9a929d2c6af442e499e9eaf730193272daf0ea4324c1b76fb6c33382604051611d3e92919061321b565b60405180910390a150565b60086020528060005260406000206000915090505481565b60035481565b611d6f611e13565b600073ffffffffffffffffffffffffffffffffffffffff168173ffffffffffffffffffffffffffffffffffffffff1603611de15760006040517f1e4fbdf7000000000000000000000000000000000000000000000000000000008152600401611dd891906121f6565b60405180910390fd5b611dea81611e9a565b50565b600160009054906101000a900473ffffffffffffffffffffffffffffffffffffffff1681565b611e1b611f5e565b73ffffffffffffffffffffffffffffffffffffffff16611e396109bf565b73ffffffffffffffffffffffffffffffffffffffff1614611e9857611e5c611f5e565b6040517f118cdaa7000000000000000000000000000000000000000000000000000000008152600401611e8f91906121f6565b60405180910390fd5b565b60008060009054906101000a900473ffffffffffffffffffffffffffffffffffffffff169050816000806101000a81548173ffffffffffffffffffffffffffffffffffffffff021916908373ffffffffffffffffffffffffffffffffffffffff1602179055508173ffffffffffffffffffffffffffffffffffffffff168173ffffffffffffffffffffffffffffffffffffffff167f8be0079c531659141344cd1fd0a4f28419497f9722a3daafe3b4186f6b6457e060405160405180910390a35050565b600033905090565b600080fd5b600080fd5b6000819050919050565b611f8381611f70565b8114611f8e57600080fd5b50565b600081359050611fa081611f7a565b92915050565b600060208284031215611fbc57611fbb611f66565b5b6000611fca84828501611f91565b91505092915050565b600081519050919050565b600082825260208201905092915050565b60005b8381101561200d578082015181840152602081019050611ff2565b60008484015250505050565b6000601f19601f8301169050919050565b600061203582611fd3565b61203f8185611fde565b935061204f818560208601611fef565b61205881612019565b840191505092915050565b600073ffffffffffffffffffffffffffffffffffffffff82169050919050565b600061208e82612063565b9050919050565b61209e81612083565b82525050565b6120ad81611f70565b82525050565b60008115159050919050565b6120c8816120b3565b82525050565b60006101208201905081810360008301526120e9818c61202a565b905081810360208301526120fd818b61202a565b905061210c604083018a612095565b61211960608301896120a4565b61212660808301886120a4565b61213360a08301876120a4565b61214060c08301866120a4565b61214d60e08301856120bf565b61215b6101008301846120a4565b9a9950505050505050505050565b600061217482612063565b9050919050565b61218481612169565b811461218f57600080fd5b50565b6000813590506121a18161217b565b92915050565b600080604083850312156121be576121bd611f66565b5b60006121cc85828601612192565b92505060206121dd85828601611f91565b9150509250929050565b6121f081612169565b82525050565b600060208201905061220b60008301846121e7565b92915050565b6000806040838503121561222857612227611f66565b5b600061223685828601611f91565b925050602061224785828601612192565b9150509250929050565b600060208201905061226660008301846120bf565b92915050565b60006020828403121561228257612281611f66565b5b600061229084828501612192565b91505092915050565b600060ff82169050919050565b6122af81612299565b81146122ba57600080fd5b50565b6000813590506122cc816122a6565b92915050565b600080604083850312156122e9576122e8611f66565b5b60006122f785828601611f91565b9250506020612308858286016122bd565b9150509250929050565b600060208201905061232760008301846120a4565b92915050565b600081519050919050565b600082825260208201905092915050565b6000819050602082019050919050565b61236281612169565b82525050565b60006123748383612359565b60208301905092915050565b6000602082019050919050565b60006123988261232d565b6123a28185612338565b93506123ad83612349565b8060005b838110156123de5781516123c58882612368565b97506123d083612380565b9250506001810190506123b1565b5085935050505092915050565b60006020820190508181036000830152612405818461238d565b905092915050565b600080fd5b600080fd5b600080fd5b60008083601f8401126124325761243161240d565b5b8235905067ffffffffffffffff81111561244f5761244e612412565b5b60208301915083600182028301111561246b5761246a612417565b5b9250929050565b61247b81612083565b811461248657600080fd5b50565b60008135905061249881612472565b92915050565b600080600080600080600060a0888a0312156124bd576124bc611f66565b5b600088013567ffffffffffffffff8111156124db576124da611f6b565b5b6124e78a828b0161241c565b9750975050602088013567ffffffffffffffff81111561250a57612509611f6b565b5b6125168a828b0161241c565b955095505060406125298a828b01612489565b935050606061253a8a828b01611f91565b925050608061254b8a828b01611f91565b91505092959891949750929550565b6000819050919050565b600061257f61257a61257584612063565b61255a565b612063565b9050919050565b600061259182612564565b9050919050565b60006125a382612586565b9050919050565b6125b381612598565b82525050565b60006020820190506125ce60008301846125aa565b92915050565b7f4e487b7100000000000000000000000000000000000000000000000000000000600052602260045260246000fd5b6000600282049050600182168061261b57607f821691505b60208210810361262e5761262d6125d4565b5b50919050565b7f4e6f7420612044414f206d656d62657200000000000000000000000000000000600082015250565b600061266a601083611fde565b915061267582612634565b602082019050919050565b600060208201905081810360008301526126998161265d565b9050919050565b7f566f74696e67207374696c6c2061637469766500000000000000000000000000600082015250565b60006126d6601383611fde565b91506126e1826126a0565b602082019050919050565b60006020820190508181036000830152612705816126c9565b9050919050565b7f50726f706f73616c20616c726561647920657865637574656400000000000000600082015250565b6000612742601983611fde565b915061274d8261270c565b602082019050919050565b6000602082019050818103600083015261277181612735565b9050919050565b600061278382612586565b9050919050565b61279381612778565b82525050565b60006040820190506127ae600083018561278a565b6127bb60208301846120a4565b9392505050565b6127cb816120b3565b81146127d657600080fd5b50565b6000815190506127e8816127c2565b92915050565b60006020828403121561280457612803611f66565b5b6000612812848285016127d9565b91505092915050565b7f546f6b656e207472616e73666572206661696c65640000000000000000000000600082015250565b6000612851601583611fde565b915061285c8261281b565b602082019050919050565b6000602082019050818103600083015261288081612844565b9050919050565b7f496e76616c69642070726f706f73616c20494400000000000000000000000000600082015250565b60006128bd601383611fde565b91506128c882612887565b602082019050919050565b600060208201905081810360008301526128ec816128b0565b9050919050565b7f566f74696e6720706572696f64206964206f7665720000000000000000000000600082015250565b6000612929601583611fde565b9150612934826128f3565b602082019050919050565b600060208201905081810360008301526129588161291c565b9050919050565b7f416c726561647920766f74656400000000000000000000000000000000000000600082015250565b6000612995600d83611fde565b91506129a08261295f565b602082019050919050565b600060208201905081810360008301526129c481612988565b9050919050565b7f596f7520686176652064656c65676174656420796f757220766f74652c20636160008201527f6e6e6f7420766f7465206469726563746c790000000000000000000000000000602082015250565b6000612a27603283611fde565b9150612a32826129cb565b604082019050919050565b60006020820190508181036000830152612a5681612a1a565b9050919050565b7f4e487b7100000000000000000000000000000000000000000000000000000000600052601160045260246000fd5b6000612a9782611f70565b9150612aa283611f70565b9250828201905080821115612aba57612ab9612a5d565b5b92915050565b7f4e487b7100000000000000000000000000000000000000000000000000000000600052603260045260246000fd5b612af881612299565b82525050565b6000608082019050612b1360008301876120a4565b612b2060208301866121e7565b612b2d6040830185612aef565b612b3a60608301846120a4565b95945050505050565b7f496e76616c696420766f7465206f7074696f6e00000000000000000000000000600082015250565b6000612b79601383611fde565b9150612b8482612b43565b602082019050919050565b60006020820190508181036000830152612ba881612b6c565b9050919050565b7f4e6f206163746976652064656c65676174696f6e000000000000000000000000600082015250565b6000612be5601483611fde565b9150612bf082612baf565b602082019050919050565b60006020820190508181036000830152612c1481612bd8565b9050919050565b6000612c2682611f70565b9150612c3183611f70565b9250828203905081811115612c4957612c48612a5d565b5b92915050565b6000606082019050612c6460008301866121e7565b612c7160208301856121e7565b612c7e60408301846120a4565b949350505050565b7f43616e6e6f742064656c656761746520746f20796f757273656c660000000000600082015250565b6000612cbc601b83611fde565b9150612cc782612c86565b602082019050919050565b60006020820190508181036000830152612ceb81612caf565b9050919050565b7f44656c6567617465206d7573742062652061206d656d62657200000000000000600082015250565b6000612d28601983611fde565b9150612d3382612cf2565b602082019050919050565b60006020820190508181036000830152612d5781612d1b565b9050919050565b7f416c72656164792064656c656761746564000000000000000000000000000000600082015250565b6000612d94601183611fde565b9150612d9f82612d5e565b602082019050919050565b60006020820190508181036000830152612dc381612d87565b9050919050565b6000612dd582611f70565b91507fffffffffffffffffffffffffffffffffffffffffffffffffffffffffffffffff8203612e0757612e06612a5d565b5b600182019050919050565b600082905092915050565b7f4e487b7100000000000000000000000000000000000000000000000000000000600052604160045260246000fd5b60008190508160005260206000209050919050565b60006020601f8301049050919050565b600082821b905092915050565b600060088302612eae7fffffffffffffffffffffffffffffffffffffffffffffffffffffffffffffffff82612e71565b612eb88683612e71565b95508019841693508086168417925050509392505050565b6000612eeb612ee6612ee184611f70565b61255a565b611f70565b9050919050565b6000819050919050565b612f0583612ed0565b612f19612f1182612ef2565b848454612e7e565b825550505050565b600090565b612f2e612f21565b612f39818484612efc565b505050565b5b81811015612f5d57612f52600082612f26565b600181019050612f3f565b5050565b601f821115612fa257612f7381612e4c565b612f7c84612e61565b81016020851015612f8b578190505b612f9f612f9785612e61565b830182612f3e565b50505b505050565b600082821c905092915050565b6000612fc560001984600802612fa7565b1980831691505092915050565b6000612fde8383612fb4565b9150826002028217905092915050565b612ff88383612e12565b67ffffffffffffffff81111561301157613010612e1d565b5b61301b8254612603565b613026828285612f61565b6000601f8311600181146130555760008415613043578287013590505b61304d8582612fd2565b8655506130b5565b601f19841661306386612e4c565b60005b8281101561308b57848901358255600182019150602085019450602081019050613066565b868310156130a857848901356130a4601f891682612fb4565b8355505b6001600288020188555050505b50505050505050565b60006130c982611f70565b91506130d483611f70565b92508282026130e281611f70565b915082820484148315176130f9576130f8612a5d565b5b5092915050565b82818337600083830152505050565b600061311b8385611fde565b9350613128838584613100565b61313183612019565b840190509392505050565b600060c082019050613151600083018b6120a4565b818103602083015261316481898b61310f565b9050818103604083015261317981878961310f565b9050613188606083018661278a565b61319560808301856120a4565b6131a260a08301846120a4565b9998505050505050505050565b7f546f6b656e2073616c6520697320636c6f736564000000000000000000000000600082015250565b60006131e5601483611fde565b91506131f0826131af565b602082019050919050565b60006020820190508181036000830152613214816131d8565b9050919050565b600060408201905061323060008301856121e7565b61323d60208301846120a4565b939250505056fea26469706673582212204eae1ce2b761bc1c2ab490c2aa8b2db63fd9ccf92a6ab1bd786fcd88e2eafdb364736f6c634300081b0033",
          "opcodes": "PUSH1 0x80 PUSH1 0x40 MSTORE PUSH1 0x1 DUP1 PUSH1 0x14 PUSH2 0x100 EXP DUP2 SLOAD DUP2 PUSH1 0xFF MUL NOT AND SWAP1 DUP4 ISZERO ISZERO MUL OR SWAP1 SSTORE POP CALLVALUE DUP1 ISZERO PUSH2 0x2A JUMPI PUSH1 0x0 DUP1 REVERT JUMPDEST POP PUSH1 0x40 MLOAD PUSH2 0x3580 CODESIZE SUB DUP1 PUSH2 0x3580 DUP4 CODECOPY DUP2 DUP2 ADD PUSH1 0x40 MSTORE DUP2 ADD SWAP1 PUSH2 0x4C SWAP2 SWAP1 PUSH2 0x28D JUMP JUMPDEST CALLER PUSH1 0x0 PUSH20 0xFFFFFFFFFFFFFFFFFFFFFFFFFFFFFFFFFFFFFFFF AND DUP2 PUSH20 0xFFFFFFFFFFFFFFFFFFFFFFFFFFFFFFFFFFFFFFFF AND SUB PUSH2 0xBF JUMPI PUSH1 0x0 PUSH1 0x40 MLOAD PUSH32 0x1E4FBDF700000000000000000000000000000000000000000000000000000000 DUP2 MSTORE PUSH1 0x4 ADD PUSH2 0xB6 SWAP2 SWAP1 PUSH2 0x2DC JUMP JUMPDEST PUSH1 0x40 MLOAD DUP1 SWAP2 SUB SWAP1 REVERT JUMPDEST PUSH2 0xCE DUP2 PUSH2 0x11E PUSH1 0x20 SHL PUSH1 0x20 SHR JUMP JUMPDEST POP DUP2 PUSH1 0x1 PUSH1 0x0 PUSH2 0x100 EXP DUP2 SLOAD DUP2 PUSH20 0xFFFFFFFFFFFFFFFFFFFFFFFFFFFFFFFFFFFFFFFF MUL NOT AND SWAP1 DUP4 PUSH20 0xFFFFFFFFFFFFFFFFFFFFFFFFFFFFFFFFFFFFFFFF AND MUL OR SWAP1 SSTORE POP DUP1 PUSH1 0x2 DUP2 SWAP1 SSTORE POP POP POP PUSH2 0x2F7 JUMP JUMPDEST PUSH1 0x0 DUP1 PUSH1 0x0 SWAP1 SLOAD SWAP1 PUSH2 0x100 EXP SWAP1 DIV PUSH20 0xFFFFFFFFFFFFFFFFFFFFFFFFFFFFFFFFFFFFFFFF AND SWAP1 POP DUP2 PUSH1 0x0 DUP1 PUSH2 0x100 EXP DUP2 SLOAD DUP2 PUSH20 0xFFFFFFFFFFFFFFFFFFFFFFFFFFFFFFFFFFFFFFFF MUL NOT AND SWAP1 DUP4 PUSH20 0xFFFFFFFFFFFFFFFFFFFFFFFFFFFFFFFFFFFFFFFF AND MUL OR SWAP1 SSTORE POP DUP2 PUSH20 0xFFFFFFFFFFFFFFFFFFFFFFFFFFFFFFFFFFFFFFFF AND DUP2 PUSH20 0xFFFFFFFFFFFFFFFFFFFFFFFFFFFFFFFFFFFFFFFF AND PUSH32 0x8BE0079C531659141344CD1FD0A4F28419497F9722A3DAAFE3B4186F6B6457E0 PUSH1 0x40 MLOAD PUSH1 0x40 MLOAD DUP1 SWAP2 SUB SWAP1 LOG3 POP POP JUMP JUMPDEST PUSH1 0x0 DUP1 REVERT JUMPDEST PUSH1 0x0 PUSH20 0xFFFFFFFFFFFFFFFFFFFFFFFFFFFFFFFFFFFFFFFF DUP3 AND SWAP1 POP SWAP2 SWAP1 POP JUMP JUMPDEST PUSH1 0x0 PUSH2 0x212 DUP3 PUSH2 0x1E7 JUMP JUMPDEST SWAP1 POP SWAP2 SWAP1 POP JUMP JUMPDEST PUSH1 0x0 PUSH2 0x224 DUP3 PUSH2 0x207 JUMP JUMPDEST SWAP1 POP SWAP2 SWAP1 POP JUMP JUMPDEST PUSH2 0x234 DUP2 PUSH2 0x219 JUMP JUMPDEST DUP2 EQ PUSH2 0x23F JUMPI PUSH1 0x0 DUP1 REVERT JUMPDEST POP JUMP JUMPDEST PUSH1 0x0 DUP2 MLOAD SWAP1 POP PUSH2 0x251 DUP2 PUSH2 0x22B JUMP JUMPDEST SWAP3 SWAP2 POP POP JUMP JUMPDEST PUSH1 0x0 DUP2 SWAP1 POP SWAP2 SWAP1 POP JUMP JUMPDEST PUSH2 0x26A DUP2 PUSH2 0x257 JUMP JUMPDEST DUP2 EQ PUSH2 0x275 JUMPI PUSH1 0x0 DUP1 REVERT JUMPDEST POP JUMP JUMPDEST PUSH1 0x0 DUP2 MLOAD SWAP1 POP PUSH2 0x287 DUP2 PUSH2 0x261 JUMP JUMPDEST SWAP3 SWAP2 POP POP JUMP JUMPDEST PUSH1 0x0 DUP1 PUSH1 0x40 DUP4 DUP6 SUB SLT ISZERO PUSH2 0x2A4 JUMPI PUSH2 0x2A3 PUSH2 0x1E2 JUMP JUMPDEST JUMPDEST PUSH1 0x0 PUSH2 0x2B2 DUP6 DUP3 DUP7 ADD PUSH2 0x242 JUMP JUMPDEST SWAP3 POP POP PUSH1 0x20 PUSH2 0x2C3 DUP6 DUP3 DUP7 ADD PUSH2 0x278 JUMP JUMPDEST SWAP2 POP POP SWAP3 POP SWAP3 SWAP1 POP JUMP JUMPDEST PUSH2 0x2D6 DUP2 PUSH2 0x207 JUMP JUMPDEST DUP3 MSTORE POP POP JUMP JUMPDEST PUSH1 0x0 PUSH1 0x20 DUP3 ADD SWAP1 POP PUSH2 0x2F1 PUSH1 0x0 DUP4 ADD DUP5 PUSH2 0x2CD JUMP JUMPDEST SWAP3 SWAP2 POP POP JUMP JUMPDEST PUSH2 0x327A DUP1 PUSH2 0x306 PUSH1 0x0 CODECOPY PUSH1 0x0 RETURN INVALID PUSH1 0x80 PUSH1 0x40 MSTORE CALLVALUE DUP1 ISZERO PUSH2 0x10 JUMPI PUSH1 0x0 DUP1 REVERT JUMPDEST POP PUSH1 0x4 CALLDATASIZE LT PUSH2 0x137 JUMPI PUSH1 0x0 CALLDATALOAD PUSH1 0xE0 SHR DUP1 PUSH4 0x99530B06 GT PUSH2 0xB8 JUMPI DUP1 PUSH4 0xCE7C2AC2 GT PUSH2 0x7C JUMPI DUP1 PUSH4 0xCE7C2AC2 EQ PUSH2 0x31C JUMPI DUP1 PUSH4 0xD1A93D18 EQ PUSH2 0x34C JUMPI DUP1 PUSH4 0xD364D4D4 EQ PUSH2 0x368 JUMPI DUP1 PUSH4 0xDA35C664 EQ PUSH2 0x398 JUMPI DUP1 PUSH4 0xF2FDE38B EQ PUSH2 0x3B6 JUMPI DUP1 PUSH4 0xFC0C546A EQ PUSH2 0x3D2 JUMPI PUSH2 0x137 JUMP JUMPDEST DUP1 PUSH4 0x99530B06 EQ PUSH2 0x28C JUMPI DUP1 PUSH4 0xA4D31805 EQ PUSH2 0x2AA JUMPI DUP1 PUSH4 0xA64AD595 EQ PUSH2 0x2B4 JUMPI DUP1 PUSH4 0xB31E1D4D EQ PUSH2 0x2E4 JUMPI DUP1 PUSH4 0xC062B406 EQ PUSH2 0x300 JUMPI PUSH2 0x137 JUMP JUMPDEST DUP1 PUSH4 0x5C19A95C GT PUSH2 0xFF JUMPI DUP1 PUSH4 0x5C19A95C EQ PUSH2 0x1FA JUMPI DUP1 PUSH4 0x68428A1B EQ PUSH2 0x22A JUMPI DUP1 PUSH4 0x715018A6 EQ PUSH2 0x248 JUMPI DUP1 PUSH4 0x8DA5CB5B EQ PUSH2 0x252 JUMPI DUP1 PUSH4 0x943E8216 EQ PUSH2 0x270 JUMPI PUSH2 0x137 JUMP JUMPDEST DUP1 PUSH4 0x13CF08B EQ PUSH2 0x13C JUMPI DUP1 PUSH4 0xD61B519 EQ PUSH2 0x174 JUMPI DUP1 PUSH4 0x1174D001 EQ PUSH2 0x190 JUMPI DUP1 PUSH4 0x380D831B EQ PUSH2 0x1C0 JUMPI DUP1 PUSH4 0x43859632 EQ PUSH2 0x1CA JUMPI JUMPDEST PUSH1 0x0 DUP1 REVERT JUMPDEST PUSH2 0x156 PUSH1 0x4 DUP1 CALLDATASIZE SUB DUP2 ADD SWAP1 PUSH2 0x151 SWAP2 SWAP1 PUSH2 0x1FA6 JUMP JUMPDEST PUSH2 0x3F0 JUMP JUMPDEST PUSH1 0x40 MLOAD PUSH2 0x16B SWAP10 SWAP9 SWAP8 SWAP7 SWAP6 SWAP5 SWAP4 SWAP3 SWAP2 SWAP1 PUSH2 0x20CE JUMP JUMPDEST PUSH1 0x40 MLOAD DUP1 SWAP2 SUB SWAP1 RETURN JUMPDEST PUSH2 0x18E PUSH1 0x4 DUP1 CALLDATASIZE SUB DUP2 ADD SWAP1 PUSH2 0x189 SWAP2 SWAP1 PUSH2 0x1FA6 JUMP JUMPDEST PUSH2 0x57B JUMP JUMPDEST STOP JUMPDEST PUSH2 0x1AA PUSH1 0x4 DUP1 CALLDATASIZE SUB DUP2 ADD SWAP1 PUSH2 0x1A5 SWAP2 SWAP1 PUSH2 0x21A7 JUMP JUMPDEST PUSH2 0x887 JUMP JUMPDEST PUSH1 0x40 MLOAD PUSH2 0x1B7 SWAP2 SWAP1 PUSH2 0x21F6 JUMP JUMPDEST PUSH1 0x40 MLOAD DUP1 SWAP2 SUB SWAP1 RETURN JUMPDEST PUSH2 0x1C8 PUSH2 0x8D5 JUMP JUMPDEST STOP JUMPDEST PUSH2 0x1E4 PUSH1 0x4 DUP1 CALLDATASIZE SUB DUP2 ADD SWAP1 PUSH2 0x1DF SWAP2 SWAP1 PUSH2 0x2211 JUMP JUMPDEST PUSH2 0x8FA JUMP JUMPDEST PUSH1 0x40 MLOAD PUSH2 0x1F1 SWAP2 SWAP1 PUSH2 0x2251 JUMP JUMPDEST PUSH1 0x40 MLOAD DUP1 SWAP2 SUB SWAP1 RETURN JUMPDEST PUSH2 0x214 PUSH1 0x4 DUP1 CALLDATASIZE SUB DUP2 ADD SWAP1 PUSH2 0x20F SWAP2 SWAP1 PUSH2 0x226C JUMP JUMPDEST PUSH2 0x965 JUMP JUMPDEST PUSH1 0x40 MLOAD PUSH2 0x221 SWAP2 SWAP1 PUSH2 0x21F6 JUMP JUMPDEST PUSH1 0x40 MLOAD DUP1 SWAP2 SUB SWAP1 RETURN JUMPDEST PUSH2 0x232 PUSH2 0x998 JUMP JUMPDEST PUSH1 0x40 MLOAD PUSH2 0x23F SWAP2 SWAP1 PUSH2 0x2251 JUMP JUMPDEST PUSH1 0x40 MLOAD DUP1 SWAP2 SUB SWAP1 RETURN JUMPDEST PUSH2 0x250 PUSH2 0x9AB JUMP JUMPDEST STOP JUMPDEST PUSH2 0x25A PUSH2 0x9BF JUMP JUMPDEST PUSH1 0x40 MLOAD PUSH2 0x267 SWAP2 SWAP1 PUSH2 0x21F6 JUMP JUMPDEST PUSH1 0x40 MLOAD DUP1 SWAP2 SUB SWAP1 RETURN JUMPDEST PUSH2 0x28A PUSH1 0x4 DUP1 CALLDATASIZE SUB DUP2 ADD SWAP1 PUSH2 0x285 SWAP2 SWAP1 PUSH2 0x22D2 JUMP JUMPDEST PUSH2 0x9E8 JUMP JUMPDEST STOP JUMPDEST PUSH2 0x294 PUSH2 0xFFB JUMP JUMPDEST PUSH1 0x40 MLOAD PUSH2 0x2A1 SWAP2 SWAP1 PUSH2 0x2312 JUMP JUMPDEST PUSH1 0x40 MLOAD DUP1 SWAP2 SUB SWAP1 RETURN JUMPDEST PUSH2 0x2B2 PUSH2 0x1001 JUMP JUMPDEST STOP JUMPDEST PUSH2 0x2CE PUSH1 0x4 DUP1 CALLDATASIZE SUB DUP2 ADD SWAP1 PUSH2 0x2C9 SWAP2 SWAP1 PUSH2 0x226C JUMP JUMPDEST PUSH2 0x1452 JUMP JUMPDEST PUSH1 0x40 MLOAD PUSH2 0x2DB SWAP2 SWAP1 PUSH2 0x23EB JUMP JUMPDEST PUSH1 0x40 MLOAD DUP1 SWAP2 SUB SWAP1 RETURN JUMPDEST PUSH2 0x2FE PUSH1 0x4 DUP1 CALLDATASIZE SUB DUP2 ADD SWAP1 PUSH2 0x2F9 SWAP2 SWAP1 PUSH2 0x226C JUMP JUMPDEST PUSH2 0x151F JUMP JUMPDEST STOP JUMPDEST PUSH2 0x31A PUSH1 0x4 DUP1 CALLDATASIZE SUB DUP2 ADD SWAP1 PUSH2 0x315 SWAP2 SWAP1 PUSH2 0x249E JUMP JUMPDEST PUSH2 0x198F JUMP JUMPDEST STOP JUMPDEST PUSH2 0x336 PUSH1 0x4 DUP1 CALLDATASIZE SUB DUP2 ADD SWAP1 PUSH2 0x331 SWAP2 SWAP1 PUSH2 0x226C JUMP JUMPDEST PUSH2 0x1B62 JUMP JUMPDEST PUSH1 0x40 MLOAD PUSH2 0x343 SWAP2 SWAP1 PUSH2 0x2312 JUMP JUMPDEST PUSH1 0x40 MLOAD DUP1 SWAP2 SUB SWAP1 RETURN JUMPDEST PUSH2 0x366 PUSH1 0x4 DUP1 CALLDATASIZE SUB DUP2 ADD SWAP1 PUSH2 0x361 SWAP2 SWAP1 PUSH2 0x1FA6 JUMP JUMPDEST PUSH2 0x1B7A JUMP JUMPDEST STOP JUMPDEST PUSH2 0x382 PUSH1 0x4 DUP1 CALLDATASIZE SUB DUP2 ADD SWAP1 PUSH2 0x37D SWAP2 SWAP1 PUSH2 0x226C JUMP JUMPDEST PUSH2 0x1D49 JUMP JUMPDEST PUSH1 0x40 MLOAD PUSH2 0x38F SWAP2 SWAP1 PUSH2 0x2312 JUMP JUMPDEST PUSH1 0x40 MLOAD DUP1 SWAP2 SUB SWAP1 RETURN JUMPDEST PUSH2 0x3A0 PUSH2 0x1D61 JUMP JUMPDEST PUSH1 0x40 MLOAD PUSH2 0x3AD SWAP2 SWAP1 PUSH2 0x2312 JUMP JUMPDEST PUSH1 0x40 MLOAD DUP1 SWAP2 SUB SWAP1 RETURN JUMPDEST PUSH2 0x3D0 PUSH1 0x4 DUP1 CALLDATASIZE SUB DUP2 ADD SWAP1 PUSH2 0x3CB SWAP2 SWAP1 PUSH2 0x226C JUMP JUMPDEST PUSH2 0x1D67 JUMP JUMPDEST STOP JUMPDEST PUSH2 0x3DA PUSH2 0x1DED JUMP JUMPDEST PUSH1 0x40 MLOAD PUSH2 0x3E7 SWAP2 SWAP1 PUSH2 0x25B9 JUMP JUMPDEST PUSH1 0x40 MLOAD DUP1 SWAP2 SUB SWAP1 RETURN JUMPDEST PUSH1 0x5 PUSH1 0x20 MSTORE DUP1 PUSH1 0x0 MSTORE PUSH1 0x40 PUSH1 0x0 KECCAK256 PUSH1 0x0 SWAP2 POP SWAP1 POP DUP1 PUSH1 0x0 ADD DUP1 SLOAD PUSH2 0x413 SWAP1 PUSH2 0x2603 JUMP JUMPDEST DUP1 PUSH1 0x1F ADD PUSH1 0x20 DUP1 SWAP2 DIV MUL PUSH1 0x20 ADD PUSH1 0x40 MLOAD SWAP1 DUP2 ADD PUSH1 0x40 MSTORE DUP1 SWAP3 SWAP2 SWAP1 DUP2 DUP2 MSTORE PUSH1 0x20 ADD DUP3 DUP1 SLOAD PUSH2 0x43F SWAP1 PUSH2 0x2603 JUMP JUMPDEST DUP1 ISZERO PUSH2 0x48C JUMPI DUP1 PUSH1 0x1F LT PUSH2 0x461 JUMPI PUSH2 0x100 DUP1 DUP4 SLOAD DIV MUL DUP4 MSTORE SWAP2 PUSH1 0x20 ADD SWAP2 PUSH2 0x48C JUMP JUMPDEST DUP3 ADD SWAP2 SWAP1 PUSH1 0x0 MSTORE PUSH1 0x20 PUSH1 0x0 KECCAK256 SWAP1 JUMPDEST DUP2 SLOAD DUP2 MSTORE SWAP1 PUSH1 0x1 ADD SWAP1 PUSH1 0x20 ADD DUP1 DUP4 GT PUSH2 0x46F JUMPI DUP3 SWAP1 SUB PUSH1 0x1F AND DUP3 ADD SWAP2 JUMPDEST POP POP POP POP POP SWAP1 DUP1 PUSH1 0x1 ADD DUP1 SLOAD PUSH2 0x4A1 SWAP1 PUSH2 0x2603 JUMP JUMPDEST DUP1 PUSH1 0x1F ADD PUSH1 0x20 DUP1 SWAP2 DIV MUL PUSH1 0x20 ADD PUSH1 0x40 MLOAD SWAP1 DUP2 ADD PUSH1 0x40 MSTORE DUP1 SWAP3 SWAP2 SWAP1 DUP2 DUP2 MSTORE PUSH1 0x20 ADD DUP3 DUP1 SLOAD PUSH2 0x4CD SWAP1 PUSH2 0x2603 JUMP JUMPDEST DUP1 ISZERO PUSH2 0x51A JUMPI DUP1 PUSH1 0x1F LT PUSH2 0x4EF JUMPI PUSH2 0x100 DUP1 DUP4 SLOAD DIV MUL DUP4 MSTORE SWAP2 PUSH1 0x20 ADD SWAP2 PUSH2 0x51A JUMP JUMPDEST DUP3 ADD SWAP2 SWAP1 PUSH1 0x0 MSTORE PUSH1 0x20 PUSH1 0x0 KECCAK256 SWAP1 JUMPDEST DUP2 SLOAD DUP2 MSTORE SWAP1 PUSH1 0x1 ADD SWAP1 PUSH1 0x20 ADD DUP1 DUP4 GT PUSH2 0x4FD JUMPI DUP3 SWAP1 SUB PUSH1 0x1F AND DUP3 ADD SWAP2 JUMPDEST POP POP POP POP POP SWAP1 DUP1 PUSH1 0x2 ADD PUSH1 0x0 SWAP1 SLOAD SWAP1 PUSH2 0x100 EXP SWAP1 DIV PUSH20 0xFFFFFFFFFFFFFFFFFFFFFFFFFFFFFFFFFFFFFFFF AND SWAP1 DUP1 PUSH1 0x3 ADD SLOAD SWAP1 DUP1 PUSH1 0x4 ADD SLOAD SWAP1 DUP1 PUSH1 0x5 ADD SLOAD SWAP1 DUP1 PUSH1 0x6 ADD SLOAD SWAP1 DUP1 PUSH1 0x7 ADD PUSH1 0x0 SWAP1 SLOAD SWAP1 PUSH2 0x100 EXP SWAP1 DIV PUSH1 0xFF AND SWAP1 DUP1 PUSH1 0x8 ADD SLOAD SWAP1 POP DUP10 JUMP JUMPDEST PUSH1 0x0 PUSH1 0x4 PUSH1 0x0 CALLER PUSH20 0xFFFFFFFFFFFFFFFFFFFFFFFFFFFFFFFFFFFFFFFF AND PUSH20 0xFFFFFFFFFFFFFFFFFFFFFFFFFFFFFFFFFFFFFFFF AND DUP2 MSTORE PUSH1 0x20 ADD SWAP1 DUP2 MSTORE PUSH1 0x20 ADD PUSH1 0x0 KECCAK256 SLOAD GT PUSH2 0x5FD JUMPI PUSH1 0x40 MLOAD PUSH32 0x8C379A000000000000000000000000000000000000000000000000000000000 DUP2 MSTORE PUSH1 0x4 ADD PUSH2 0x5F4 SWAP1 PUSH2 0x2680 JUMP JUMPDEST PUSH1 0x40 MLOAD DUP1 SWAP2 SUB SWAP1 REVERT JUMPDEST PUSH1 0x0 PUSH1 0x5 PUSH1 0x0 DUP4 DUP2 MSTORE PUSH1 0x20 ADD SWAP1 DUP2 MSTORE PUSH1 0x20 ADD PUSH1 0x0 KECCAK256 SWAP1 POP TIMESTAMP DUP2 PUSH1 0x8 ADD SLOAD LT PUSH2 0x65A JUMPI PUSH1 0x40 MLOAD PUSH32 0x8C379A000000000000000000000000000000000000000000000000000000000 DUP2 MSTORE PUSH1 0x4 ADD PUSH2 0x651 SWAP1 PUSH2 0x26EC JUMP JUMPDEST PUSH1 0x40 MLOAD DUP1 SWAP2 SUB SWAP1 REVERT JUMPDEST DUP1 PUSH1 0x7 ADD PUSH1 0x0 SWAP1 SLOAD SWAP1 PUSH2 0x100 EXP SWAP1 DIV PUSH1 0xFF AND ISZERO PUSH2 0x6AC JUMPI PUSH1 0x40 MLOAD PUSH32 0x8C379A000000000000000000000000000000000000000000000000000000000 DUP2 MSTORE PUSH1 0x4 ADD PUSH2 0x6A3 SWAP1 PUSH2 0x2758 JUMP JUMPDEST PUSH1 0x40 MLOAD DUP1 SWAP2 SUB SWAP1 REVERT JUMPDEST PUSH1 0x1 DUP2 PUSH1 0x7 ADD PUSH1 0x0 PUSH2 0x100 EXP DUP2 SLOAD DUP2 PUSH1 0xFF MUL NOT AND SWAP1 DUP4 ISZERO ISZERO MUL OR SWAP1 SSTORE POP DUP1 PUSH1 0x5 ADD SLOAD DUP2 PUSH1 0x4 ADD SLOAD GT ISZERO PUSH2 0x84C JUMPI PUSH1 0x0 PUSH20 0xFFFFFFFFFFFFFFFFFFFFFFFFFFFFFFFFFFFFFFFF AND DUP2 PUSH1 0x2 ADD PUSH1 0x0 SWAP1 SLOAD SWAP1 PUSH2 0x100 EXP SWAP1 DIV PUSH20 0xFFFFFFFFFFFFFFFFFFFFFFFFFFFFFFFFFFFFFFFF AND PUSH20 0xFFFFFFFFFFFFFFFFFFFFFFFFFFFFFFFFFFFFFFFF AND EQ ISZERO DUP1 ISZERO PUSH2 0x73E JUMPI POP PUSH1 0x0 DUP2 PUSH1 0x3 ADD SLOAD GT JUMPDEST ISZERO PUSH2 0x84B JUMPI PUSH1 0x1 PUSH1 0x0 SWAP1 SLOAD SWAP1 PUSH2 0x100 EXP SWAP1 DIV PUSH20 0xFFFFFFFFFFFFFFFFFFFFFFFFFFFFFFFFFFFFFFFF AND PUSH20 0xFFFFFFFFFFFFFFFFFFFFFFFFFFFFFFFFFFFFFFFF AND PUSH4 0xA9059CBB DUP3 PUSH1 0x2 ADD PUSH1 0x0 SWAP1 SLOAD SWAP1 PUSH2 0x100 EXP SWAP1 DIV PUSH20 0xFFFFFFFFFFFFFFFFFFFFFFFFFFFFFFFFFFFFFFFF AND DUP4 PUSH1 0x3 ADD SLOAD PUSH1 0x40 MLOAD DUP4 PUSH4 0xFFFFFFFF AND PUSH1 0xE0 SHL DUP2 MSTORE PUSH1 0x4 ADD PUSH2 0x7C8 SWAP3 SWAP2 SWAP1 PUSH2 0x2799 JUMP JUMPDEST PUSH1 0x20 PUSH1 0x40 MLOAD DUP1 DUP4 SUB DUP2 PUSH1 0x0 DUP8 GAS CALL ISZERO DUP1 ISZERO PUSH2 0x7E7 JUMPI RETURNDATASIZE PUSH1 0x0 DUP1 RETURNDATACOPY RETURNDATASIZE PUSH1 0x0 REVERT JUMPDEST POP POP POP POP PUSH1 0x40 MLOAD RETURNDATASIZE PUSH1 0x1F NOT PUSH1 0x1F DUP3 ADD AND DUP3 ADD DUP1 PUSH1 0x40 MSTORE POP DUP2 ADD SWAP1 PUSH2 0x80B SWAP2 SWAP1 PUSH2 0x27EE JUMP JUMPDEST PUSH2 0x84A JUMPI PUSH1 0x40 MLOAD PUSH32 0x8C379A000000000000000000000000000000000000000000000000000000000 DUP2 MSTORE PUSH1 0x4 ADD PUSH2 0x841 SWAP1 PUSH2 0x2867 JUMP JUMPDEST PUSH1 0x40 MLOAD DUP1 SWAP2 SUB SWAP1 REVERT JUMPDEST JUMPDEST JUMPDEST PUSH32 0x712AE1383F79AC853F8D882153778E0260EF8F03B504E2866E0593E04D2B291F DUP3 PUSH1 0x40 MLOAD PUSH2 0x87B SWAP2 SWAP1 PUSH2 0x2312 JUMP JUMPDEST PUSH1 0x40 MLOAD DUP1 SWAP2 SUB SWAP1 LOG1 POP POP JUMP JUMPDEST PUSH1 0x7 PUSH1 0x20 MSTORE DUP2 PUSH1 0x0 MSTORE PUSH1 0x40 PUSH1 0x0 KECCAK256 DUP2 DUP2 SLOAD DUP2 LT PUSH2 0x8A3 JUMPI PUSH1 0x0 DUP1 REVERT JUMPDEST SWAP1 PUSH1 0x0 MSTORE PUSH1 0x20 PUSH1 0x0 KECCAK256 ADD PUSH1 0x0 SWAP2 POP SWAP2 POP SWAP1 SLOAD SWAP1 PUSH2 0x100 EXP SWAP1 DIV PUSH20 0xFFFFFFFFFFFFFFFFFFFFFFFFFFFFFFFFFFFFFFFF AND DUP2 JUMP JUMPDEST PUSH2 0x8DD PUSH2 0x1E13 JUMP JUMPDEST PUSH1 0x0 PUSH1 0x1 PUSH1 0x14 PUSH2 0x100 EXP DUP2 SLOAD DUP2 PUSH1 0xFF MUL NOT AND SWAP1 DUP4 ISZERO ISZERO MUL OR SWAP1 SSTORE POP JUMP JUMPDEST PUSH1 0x0 PUSH1 0x5 PUSH1 0x0 DUP5 DUP2 MSTORE PUSH1 0x20 ADD SWAP1 DUP2 MSTORE PUSH1 0x20 ADD PUSH1 0x0 KECCAK256 PUSH1 0x9 ADD PUSH1 0x0 DUP4 PUSH20 0xFFFFFFFFFFFFFFFFFFFFFFFFFFFFFFFFFFFFFFFF AND PUSH20 0xFFFFFFFFFFFFFFFFFFFFFFFFFFFFFFFFFFFFFFFF AND DUP2 MSTORE PUSH1 0x20 ADD SWAP1 DUP2 MSTORE PUSH1 0x20 ADD PUSH1 0x0 KECCAK256 PUSH1 0x0 SWAP1 SLOAD SWAP1 PUSH2 0x100 EXP SWAP1 DIV PUSH1 0xFF AND SWAP1 POP SWAP3 SWAP2 POP POP JUMP JUMPDEST PUSH1 0x6 PUSH1 0x20 MSTORE DUP1 PUSH1 0x0 MSTORE PUSH1 0x40 PUSH1 0x0 KECCAK256 PUSH1 0x0 SWAP2 POP SLOAD SWAP1 PUSH2 0x100 EXP SWAP1 DIV PUSH20 0xFFFFFFFFFFFFFFFFFFFFFFFFFFFFFFFFFFFFFFFF AND DUP2 JUMP JUMPDEST PUSH1 0x1 PUSH1 0x14 SWAP1 SLOAD SWAP1 PUSH2 0x100 EXP SWAP1 DIV PUSH1 0xFF AND DUP2 JUMP JUMPDEST PUSH2 0x9B3 PUSH2 0x1E13 JUMP JUMPDEST PUSH2 0x9BD PUSH1 0x0 PUSH2 0x1E9A JUMP JUMPDEST JUMP JUMPDEST PUSH1 0x0 DUP1 PUSH1 0x0 SWAP1 SLOAD SWAP1 PUSH2 0x100 EXP SWAP1 DIV PUSH20 0xFFFFFFFFFFFFFFFFFFFFFFFFFFFFFFFFFFFFFFFF AND SWAP1 POP SWAP1 JUMP JUMPDEST PUSH1 0x0 PUSH1 0x4 PUSH1 0x0 CALLER PUSH20 0xFFFFFFFFFFFFFFFFFFFFFFFFFFFFFFFFFFFFFFFF AND PUSH20 0xFFFFFFFFFFFFFFFFFFFFFFFFFFFFFFFFFFFFFFFF AND DUP2 MSTORE PUSH1 0x20 ADD SWAP1 DUP2 MSTORE PUSH1 0x20 ADD PUSH1 0x0 KECCAK256 SLOAD GT PUSH2 0xA6A JUMPI PUSH1 0x40 MLOAD PUSH32 0x8C379A000000000000000000000000000000000000000000000000000000000 DUP2 MSTORE PUSH1 0x4 ADD PUSH2 0xA61 SWAP1 PUSH2 0x2680 JUMP JUMPDEST PUSH1 0x40 MLOAD DUP1 SWAP2 SUB SWAP1 REVERT JUMPDEST PUSH1 0x0 PUSH1 0x5 PUSH1 0x0 DUP5 DUP2 MSTORE PUSH1 0x20 ADD SWAP1 DUP2 MSTORE PUSH1 0x20 ADD PUSH1 0x0 KECCAK256 SWAP1 POP PUSH1 0x3 SLOAD DUP4 LT PUSH2 0xAC5 JUMPI PUSH1 0x40 MLOAD PUSH32 0x8C379A000000000000000000000000000000000000000000000000000000000 DUP2 MSTORE PUSH1 0x4 ADD PUSH2 0xABC SWAP1 PUSH2 0x28D3 JUMP JUMPDEST PUSH1 0x40 MLOAD DUP1 SWAP2 SUB SWAP1 REVERT JUMPDEST TIMESTAMP DUP2 PUSH1 0x8 ADD SLOAD GT PUSH2 0xB0B JUMPI PUSH1 0x40 MLOAD PUSH32 0x8C379A000000000000000000000000000000000000000000000000000000000 DUP2 MSTORE PUSH1 0x4 ADD PUSH2 0xB02 SWAP1 PUSH2 0x293F JUMP JUMPDEST PUSH1 0x40 MLOAD DUP1 SWAP2 SUB SWAP1 REVERT JUMPDEST DUP1 PUSH1 0x9 ADD PUSH1 0x0 CALLER PUSH20 0xFFFFFFFFFFFFFFFFFFFFFFFFFFFFFFFFFFFFFFFF AND PUSH20 0xFFFFFFFFFFFFFFFFFFFFFFFFFFFFFFFFFFFFFFFF AND DUP2 MSTORE PUSH1 0x20 ADD SWAP1 DUP2 MSTORE PUSH1 0x20 ADD PUSH1 0x0 KECCAK256 PUSH1 0x0 SWAP1 SLOAD SWAP1 PUSH2 0x100 EXP SWAP1 DIV PUSH1 0xFF AND ISZERO PUSH2 0xB9A JUMPI PUSH1 0x40 MLOAD PUSH32 0x8C379A000000000000000000000000000000000000000000000000000000000 DUP2 MSTORE PUSH1 0x4 ADD PUSH2 0xB91 SWAP1 PUSH2 0x29AB JUMP JUMPDEST PUSH1 0x40 MLOAD DUP1 SWAP2 SUB SWAP1 REVERT JUMPDEST PUSH1 0x0 PUSH20 0xFFFFFFFFFFFFFFFFFFFFFFFFFFFFFFFFFFFFFFFF AND PUSH1 0x6 PUSH1 0x0 CALLER PUSH20 0xFFFFFFFFFFFFFFFFFFFFFFFFFFFFFFFFFFFFFFFF AND PUSH20 0xFFFFFFFFFFFFFFFFFFFFFFFFFFFFFFFFFFFFFFFF AND DUP2 MSTORE PUSH1 0x20 ADD SWAP1 DUP2 MSTORE PUSH1 0x20 ADD PUSH1 0x0 KECCAK256 PUSH1 0x0 SWAP1 SLOAD SWAP1 PUSH2 0x100 EXP SWAP1 DIV PUSH20 0xFFFFFFFFFFFFFFFFFFFFFFFFFFFFFFFFFFFFFFFF AND PUSH20 0xFFFFFFFFFFFFFFFFFFFFFFFFFFFFFFFFFFFFFFFF AND EQ PUSH2 0xC68 JUMPI PUSH1 0x40 MLOAD PUSH32 0x8C379A000000000000000000000000000000000000000000000000000000000 DUP2 MSTORE PUSH1 0x4 ADD PUSH2 0xC5F SWAP1 PUSH2 0x2A3D JUMP JUMPDEST PUSH1 0x40 MLOAD DUP1 SWAP2 SUB SWAP1 REVERT JUMPDEST PUSH1 0x0 PUSH1 0x8 PUSH1 0x0 CALLER PUSH20 0xFFFFFFFFFFFFFFFFFFFFFFFFFFFFFFFFFFFFFFFF AND PUSH20 0xFFFFFFFFFFFFFFFFFFFFFFFFFFFFFFFFFFFFFFFF AND DUP2 MSTORE PUSH1 0x20 ADD SWAP1 DUP2 MSTORE PUSH1 0x20 ADD PUSH1 0x0 KECCAK256 SLOAD PUSH1 0x4 PUSH1 0x0 CALLER PUSH20 0xFFFFFFFFFFFFFFFFFFFFFFFFFFFFFFFFFFFFFFFF AND PUSH20 0xFFFFFFFFFFFFFFFFFFFFFFFFFFFFFFFFFFFFFFFF AND DUP2 MSTORE PUSH1 0x20 ADD SWAP1 DUP2 MSTORE PUSH1 0x20 ADD PUSH1 0x0 KECCAK256 SLOAD PUSH2 0xCF4 SWAP2 SWAP1 PUSH2 0x2A8C JUMP JUMPDEST SWAP1 POP PUSH1 0x1 DUP3 PUSH1 0x9 ADD PUSH1 0x0 CALLER PUSH20 0xFFFFFFFFFFFFFFFFFFFFFFFFFFFFFFFFFFFFFFFF AND PUSH20 0xFFFFFFFFFFFFFFFFFFFFFFFFFFFFFFFFFFFFFFFF AND DUP2 MSTORE PUSH1 0x20 ADD SWAP1 DUP2 MSTORE PUSH1 0x20 ADD PUSH1 0x0 KECCAK256 PUSH1 0x0 PUSH2 0x100 EXP DUP2 SLOAD DUP2 PUSH1 0xFF MUL NOT AND SWAP1 DUP4 ISZERO ISZERO MUL OR SWAP1 SSTORE POP PUSH1 0x0 JUMPDEST PUSH1 0x7 PUSH1 0x0 CALLER PUSH20 0xFFFFFFFFFFFFFFFFFFFFFFFFFFFFFFFFFFFFFFFF AND PUSH20 0xFFFFFFFFFFFFFFFFFFFFFFFFFFFFFFFFFFFFFFFF AND DUP2 MSTORE PUSH1 0x20 ADD SWAP1 DUP2 MSTORE PUSH1 0x20 ADD PUSH1 0x0 KECCAK256 DUP1 SLOAD SWAP1 POP DUP2 LT ISZERO PUSH2 0xE7F JUMPI PUSH1 0x1 DUP4 PUSH1 0x9 ADD PUSH1 0x0 PUSH1 0x7 PUSH1 0x0 CALLER PUSH20 0xFFFFFFFFFFFFFFFFFFFFFFFFFFFFFFFFFFFFFFFF AND PUSH20 0xFFFFFFFFFFFFFFFFFFFFFFFFFFFFFFFFFFFFFFFF AND DUP2 MSTORE PUSH1 0x20 ADD SWAP1 DUP2 MSTORE PUSH1 0x20 ADD PUSH1 0x0 KECCAK256 DUP5 DUP2 SLOAD DUP2 LT PUSH2 0xDF6 JUMPI PUSH2 0xDF5 PUSH2 0x2AC0 JUMP JUMPDEST JUMPDEST SWAP1 PUSH1 0x0 MSTORE PUSH1 0x20 PUSH1 0x0 KECCAK256 ADD PUSH1 0x0 SWAP1 SLOAD SWAP1 PUSH2 0x100 EXP SWAP1 DIV PUSH20 0xFFFFFFFFFFFFFFFFFFFFFFFFFFFFFFFFFFFFFFFF AND PUSH20 0xFFFFFFFFFFFFFFFFFFFFFFFFFFFFFFFFFFFFFFFF AND PUSH20 0xFFFFFFFFFFFFFFFFFFFFFFFFFFFFFFFFFFFFFFFF AND DUP2 MSTORE PUSH1 0x20 ADD SWAP1 DUP2 MSTORE PUSH1 0x20 ADD PUSH1 0x0 KECCAK256 PUSH1 0x0 PUSH2 0x100 EXP DUP2 SLOAD DUP2 PUSH1 0xFF MUL NOT AND SWAP1 DUP4 ISZERO ISZERO MUL OR SWAP1 SSTORE POP DUP1 DUP1 PUSH1 0x1 ADD SWAP2 POP POP PUSH2 0xD53 JUMP JUMPDEST POP PUSH1 0x1 DUP4 PUSH1 0xFF AND SUB PUSH2 0xEE8 JUMPI DUP1 DUP3 PUSH1 0x4 ADD PUSH1 0x0 DUP3 DUP3 SLOAD PUSH2 0xE9F SWAP2 SWAP1 PUSH2 0x2A8C JUMP JUMPDEST SWAP3 POP POP DUP2 SWAP1 SSTORE POP PUSH32 0x7D0367786CE6429605E65845CF8B169C4091EEF599B133ADD5762573BC600C2B DUP5 CALLER DUP6 DUP5 PUSH1 0x40 MLOAD PUSH2 0xEDB SWAP5 SWAP4 SWAP3 SWAP2 SWAP1 PUSH2 0x2AFE JUMP JUMPDEST PUSH1 0x40 MLOAD DUP1 SWAP2 SUB SWAP1 LOG1 PUSH2 0xFF5 JUMP JUMPDEST PUSH1 0x2 DUP4 PUSH1 0xFF AND SUB PUSH2 0xF50 JUMPI DUP1 DUP3 PUSH1 0x5 ADD PUSH1 0x0 DUP3 DUP3 SLOAD PUSH2 0xF07 SWAP2 SWAP1 PUSH2 0x2A8C JUMP JUMPDEST SWAP3 POP POP DUP2 SWAP1 SSTORE POP PUSH32 0x7D0367786CE6429605E65845CF8B169C4091EEF599B133ADD5762573BC600C2B DUP5 CALLER DUP6 DUP5 PUSH1 0x40 MLOAD PUSH2 0xF43 SWAP5 SWAP4 SWAP3 SWAP2 SWAP1 PUSH2 0x2AFE JUMP JUMPDEST PUSH1 0x40 MLOAD DUP1 SWAP2 SUB SWAP1 LOG1 PUSH2 0xFF4 JUMP JUMPDEST PUSH1 0x3 DUP4 PUSH1 0xFF AND SUB PUSH2 0xFB8 JUMPI DUP1 DUP3 PUSH1 0x6 ADD PUSH1 0x0 DUP3 DUP3 SLOAD PUSH2 0xF6F SWAP2 SWAP1 PUSH2 0x2A8C JUMP JUMPDEST SWAP3 POP POP DUP2 SWAP1 SSTORE POP PUSH32 0x7D0367786CE6429605E65845CF8B169C4091EEF599B133ADD5762573BC600C2B DUP5 CALLER DUP6 DUP5 PUSH1 0x40 MLOAD PUSH2 0xFAB SWAP5 SWAP4 SWAP3 SWAP2 SWAP1 PUSH2 0x2AFE JUMP JUMPDEST PUSH1 0x40 MLOAD DUP1 SWAP2 SUB SWAP1 LOG1 PUSH2 0xFF3 JUMP JUMPDEST PUSH1 0x40 MLOAD PUSH32 0x8C379A000000000000000000000000000000000000000000000000000000000 DUP2 MSTORE PUSH1 0x4 ADD PUSH2 0xFEA SWAP1 PUSH2 0x2B8F JUMP JUMPDEST PUSH1 0x40 MLOAD DUP1 SWAP2 SUB SWAP1 REVERT JUMPDEST JUMPDEST JUMPDEST POP POP POP POP JUMP JUMPDEST PUSH1 0x2 SLOAD DUP2 JUMP JUMPDEST PUSH1 0x0 PUSH1 0x4 PUSH1 0x0 CALLER PUSH20 0xFFFFFFFFFFFFFFFFFFFFFFFFFFFFFFFFFFFFFFFF AND PUSH20 0xFFFFFFFFFFFFFFFFFFFFFFFFFFFFFFFFFFFFFFFF AND DUP2 MSTORE PUSH1 0x20 ADD SWAP1 DUP2 MSTORE PUSH1 0x20 ADD PUSH1 0x0 KECCAK256 SLOAD GT PUSH2 0x1083 JUMPI PUSH1 0x40 MLOAD PUSH32 0x8C379A000000000000000000000000000000000000000000000000000000000 DUP2 MSTORE PUSH1 0x4 ADD PUSH2 0x107A SWAP1 PUSH2 0x2680 JUMP JUMPDEST PUSH1 0x40 MLOAD DUP1 SWAP2 SUB SWAP1 REVERT JUMPDEST PUSH1 0x0 PUSH1 0x6 PUSH1 0x0 CALLER PUSH20 0xFFFFFFFFFFFFFFFFFFFFFFFFFFFFFFFFFFFFFFFF AND PUSH20 0xFFFFFFFFFFFFFFFFFFFFFFFFFFFFFFFFFFFFFFFF AND DUP2 MSTORE PUSH1 0x20 ADD SWAP1 DUP2 MSTORE PUSH1 0x20 ADD PUSH1 0x0 KECCAK256 PUSH1 0x0 SWAP1 SLOAD SWAP1 PUSH2 0x100 EXP SWAP1 DIV PUSH20 0xFFFFFFFFFFFFFFFFFFFFFFFFFFFFFFFFFFFFFFFF AND SWAP1 POP PUSH1 0x0 PUSH20 0xFFFFFFFFFFFFFFFFFFFFFFFFFFFFFFFFFFFFFFFF AND DUP2 PUSH20 0xFFFFFFFFFFFFFFFFFFFFFFFFFFFFFFFFFFFFFFFF AND SUB PUSH2 0x1156 JUMPI PUSH1 0x40 MLOAD PUSH32 0x8C379A000000000000000000000000000000000000000000000000000000000 DUP2 MSTORE PUSH1 0x4 ADD PUSH2 0x114D SWAP1 PUSH2 0x2BFB JUMP JUMPDEST PUSH1 0x40 MLOAD DUP1 SWAP2 SUB SWAP1 REVERT JUMPDEST PUSH1 0x4 PUSH1 0x0 CALLER PUSH20 0xFFFFFFFFFFFFFFFFFFFFFFFFFFFFFFFFFFFFFFFF AND PUSH20 0xFFFFFFFFFFFFFFFFFFFFFFFFFFFFFFFFFFFFFFFF AND DUP2 MSTORE PUSH1 0x20 ADD SWAP1 DUP2 MSTORE PUSH1 0x20 ADD PUSH1 0x0 KECCAK256 SLOAD PUSH1 0x8 PUSH1 0x0 DUP4 PUSH20 0xFFFFFFFFFFFFFFFFFFFFFFFFFFFFFFFFFFFFFFFF AND PUSH20 0xFFFFFFFFFFFFFFFFFFFFFFFFFFFFFFFFFFFFFFFF AND DUP2 MSTORE PUSH1 0x20 ADD SWAP1 DUP2 MSTORE PUSH1 0x20 ADD PUSH1 0x0 KECCAK256 PUSH1 0x0 DUP3 DUP3 SLOAD PUSH2 0x11E4 SWAP2 SWAP1 PUSH2 0x2C1B JUMP JUMPDEST SWAP3 POP POP DUP2 SWAP1 SSTORE POP PUSH1 0x6 PUSH1 0x0 CALLER PUSH20 0xFFFFFFFFFFFFFFFFFFFFFFFFFFFFFFFFFFFFFFFF AND PUSH20 0xFFFFFFFFFFFFFFFFFFFFFFFFFFFFFFFFFFFFFFFF AND DUP2 MSTORE PUSH1 0x20 ADD SWAP1 DUP2 MSTORE PUSH1 0x20 ADD PUSH1 0x0 KECCAK256 PUSH1 0x0 PUSH2 0x100 EXP DUP2 SLOAD SWAP1 PUSH20 0xFFFFFFFFFFFFFFFFFFFFFFFFFFFFFFFFFFFFFFFF MUL NOT AND SWAP1 SSTORE PUSH1 0x0 JUMPDEST PUSH1 0x7 PUSH1 0x0 DUP4 PUSH20 0xFFFFFFFFFFFFFFFFFFFFFFFFFFFFFFFFFFFFFFFF AND PUSH20 0xFFFFFFFFFFFFFFFFFFFFFFFFFFFFFFFFFFFFFFFF AND DUP2 MSTORE PUSH1 0x20 ADD SWAP1 DUP2 MSTORE PUSH1 0x20 ADD PUSH1 0x0 KECCAK256 DUP1 SLOAD SWAP1 POP DUP2 LT ISZERO PUSH2 0x13D4 JUMPI CALLER PUSH20 0xFFFFFFFFFFFFFFFFFFFFFFFFFFFFFFFFFFFFFFFF AND PUSH1 0x7 PUSH1 0x0 DUP5 PUSH20 0xFFFFFFFFFFFFFFFFFFFFFFFFFFFFFFFFFFFFFFFF AND PUSH20 0xFFFFFFFFFFFFFFFFFFFFFFFFFFFFFFFFFFFFFFFF AND DUP2 MSTORE PUSH1 0x20 ADD SWAP1 DUP2 MSTORE PUSH1 0x20 ADD PUSH1 0x0 KECCAK256 DUP3 DUP2 SLOAD DUP2 LT PUSH2 0x1302 JUMPI PUSH2 0x1301 PUSH2 0x2AC0 JUMP JUMPDEST JUMPDEST SWAP1 PUSH1 0x0 MSTORE PUSH1 0x20 PUSH1 0x0 KECCAK256 ADD PUSH1 0x0 SWAP1 SLOAD SWAP1 PUSH2 0x100 EXP SWAP1 DIV PUSH20 0xFFFFFFFFFFFFFFFFFFFFFFFFFFFFFFFFFFFFFFFF AND PUSH20 0xFFFFFFFFFFFFFFFFFFFFFFFFFFFFFFFFFFFFFFFF AND SUB PUSH2 0x13C7 JUMPI PUSH1 0x7 PUSH1 0x0 DUP4 PUSH20 0xFFFFFFFFFFFFFFFFFFFFFFFFFFFFFFFFFFFFFFFF AND PUSH20 0xFFFFFFFFFFFFFFFFFFFFFFFFFFFFFFFFFFFFFFFF AND DUP2 MSTORE PUSH1 0x20 ADD SWAP1 DUP2 MSTORE PUSH1 0x20 ADD PUSH1 0x0 KECCAK256 DUP2 DUP2 SLOAD DUP2 LT PUSH2 0x1399 JUMPI PUSH2 0x1398 PUSH2 0x2AC0 JUMP JUMPDEST JUMPDEST SWAP1 PUSH1 0x0 MSTORE PUSH1 0x20 PUSH1 0x0 KECCAK256 ADD PUSH1 0x0 PUSH2 0x100 EXP DUP2 SLOAD SWAP1 PUSH20 0xFFFFFFFFFFFFFFFFFFFFFFFFFFFFFFFFFFFFFFFF MUL NOT AND SWAP1 SSTORE JUMPDEST DUP1 DUP1 PUSH1 0x1 ADD SWAP2 POP POP PUSH2 0x1250 JUMP JUMPDEST POP PUSH32 0x8804646C776EE4E91100FB6859354B09A479E5B7FCEAA9C7C7364E7D63A1BC81 CALLER DUP3 PUSH1 0x4 PUSH1 0x0 CALLER PUSH20 0xFFFFFFFFFFFFFFFFFFFFFFFFFFFFFFFFFFFFFFFF AND PUSH20 0xFFFFFFFFFFFFFFFFFFFFFFFFFFFFFFFFFFFFFFFF AND DUP2 MSTORE PUSH1 0x20 ADD SWAP1 DUP2 MSTORE PUSH1 0x20 ADD PUSH1 0x0 KECCAK256 SLOAD PUSH1 0x40 MLOAD PUSH2 0x1447 SWAP4 SWAP3 SWAP2 SWAP1 PUSH2 0x2C4F JUMP JUMPDEST PUSH1 0x40 MLOAD DUP1 SWAP2 SUB SWAP1 LOG1 POP JUMP JUMPDEST PUSH1 0x60 PUSH1 0x7 PUSH1 0x0 DUP4 PUSH20 0xFFFFFFFFFFFFFFFFFFFFFFFFFFFFFFFFFFFFFFFF AND PUSH20 0xFFFFFFFFFFFFFFFFFFFFFFFFFFFFFFFFFFFFFFFF AND DUP2 MSTORE PUSH1 0x20 ADD SWAP1 DUP2 MSTORE PUSH1 0x20 ADD PUSH1 0x0 KECCAK256 DUP1 SLOAD DUP1 PUSH1 0x20 MUL PUSH1 0x20 ADD PUSH1 0x40 MLOAD SWAP1 DUP2 ADD PUSH1 0x40 MSTORE DUP1 SWAP3 SWAP2 SWAP1 DUP2 DUP2 MSTORE PUSH1 0x20 ADD DUP3 DUP1 SLOAD DUP1 ISZERO PUSH2 0x1513 JUMPI PUSH1 0x20 MUL DUP3 ADD SWAP2 SWAP1 PUSH1 0x0 MSTORE PUSH1 0x20 PUSH1 0x0 KECCAK256 SWAP1 JUMPDEST DUP2 PUSH1 0x0 SWAP1 SLOAD SWAP1 PUSH2 0x100 EXP SWAP1 DIV PUSH20 0xFFFFFFFFFFFFFFFFFFFFFFFFFFFFFFFFFFFFFFFF AND PUSH20 0xFFFFFFFFFFFFFFFFFFFFFFFFFFFFFFFFFFFFFFFF AND DUP2 MSTORE PUSH1 0x20 ADD SWAP1 PUSH1 0x1 ADD SWAP1 DUP1 DUP4 GT PUSH2 0x14C9 JUMPI JUMPDEST POP POP POP POP POP SWAP1 POP SWAP2 SWAP1 POP JUMP JUMPDEST PUSH1 0x0 PUSH1 0x4 PUSH1 0x0 CALLER PUSH20 0xFFFFFFFFFFFFFFFFFFFFFFFFFFFFFFFFFFFFFFFF AND PUSH20 0xFFFFFFFFFFFFFFFFFFFFFFFFFFFFFFFFFFFFFFFF AND DUP2 MSTORE PUSH1 0x20 ADD SWAP1 DUP2 MSTORE PUSH1 0x20 ADD PUSH1 0x0 KECCAK256 SLOAD GT PUSH2 0x15A1 JUMPI PUSH1 0x40 MLOAD PUSH32 0x8C379A000000000000000000000000000000000000000000000000000000000 DUP2 MSTORE PUSH1 0x4 ADD PUSH2 0x1598 SWAP1 PUSH2 0x2680 JUMP JUMPDEST PUSH1 0x40 MLOAD DUP1 SWAP2 SUB SWAP1 REVERT JUMPDEST CALLER PUSH20 0xFFFFFFFFFFFFFFFFFFFFFFFFFFFFFFFFFFFFFFFF AND DUP2 PUSH20 0xFFFFFFFFFFFFFFFFFFFFFFFFFFFFFFFFFFFFFFFF AND SUB PUSH2 0x160F JUMPI PUSH1 0x40 MLOAD PUSH32 0x8C379A000000000000000000000000000000000000000000000000000000000 DUP2 MSTORE PUSH1 0x4 ADD PUSH2 0x1606 SWAP1 PUSH2 0x2CD2 JUMP JUMPDEST PUSH1 0x40 MLOAD DUP1 SWAP2 SUB SWAP1 REVERT JUMPDEST PUSH1 0x0 PUSH1 0x4 PUSH1 0x0 DUP4 PUSH20 0xFFFFFFFFFFFFFFFFFFFFFFFFFFFFFFFFFFFFFFFF AND PUSH20 0xFFFFFFFFFFFFFFFFFFFFFFFFFFFFFFFFFFFFFFFF AND DUP2 MSTORE PUSH1 0x20 ADD SWAP1 DUP2 MSTORE PUSH1 0x20 ADD PUSH1 0x0 KECCAK256 SLOAD GT PUSH2 0x1691 JUMPI PUSH1 0x40 MLOAD PUSH32 0x8C379A000000000000000000000000000000000000000000000000000000000 DUP2 MSTORE PUSH1 0x4 ADD PUSH2 0x1688 SWAP1 PUSH2 0x2D3E JUMP JUMPDEST PUSH1 0x40 MLOAD DUP1 SWAP2 SUB SWAP1 REVERT JUMPDEST PUSH1 0x0 PUSH20 0xFFFFFFFFFFFFFFFFFFFFFFFFFFFFFFFFFFFFFFFF AND PUSH1 0x6 PUSH1 0x0 CALLER PUSH20 0xFFFFFFFFFFFFFFFFFFFFFFFFFFFFFFFFFFFFFFFF AND PUSH20 0xFFFFFFFFFFFFFFFFFFFFFFFFFFFFFFFFFFFFFFFF AND DUP2 MSTORE PUSH1 0x20 ADD SWAP1 DUP2 MSTORE PUSH1 0x20 ADD PUSH1 0x0 KECCAK256 PUSH1 0x0 SWAP1 SLOAD SWAP1 PUSH2 0x100 EXP SWAP1 DIV PUSH20 0xFFFFFFFFFFFFFFFFFFFFFFFFFFFFFFFFFFFFFFFF AND PUSH20 0xFFFFFFFFFFFFFFFFFFFFFFFFFFFFFFFFFFFFFFFF AND EQ PUSH2 0x175F JUMPI PUSH1 0x40 MLOAD PUSH32 0x8C379A000000000000000000000000000000000000000000000000000000000 DUP2 MSTORE PUSH1 0x4 ADD PUSH2 0x1756 SWAP1 PUSH2 0x2DAA JUMP JUMPDEST PUSH1 0x40 MLOAD DUP1 SWAP2 SUB SWAP1 REVERT JUMPDEST DUP1 PUSH1 0x6 PUSH1 0x0 CALLER PUSH20 0xFFFFFFFFFFFFFFFFFFFFFFFFFFFFFFFFFFFFFFFF AND PUSH20 0xFFFFFFFFFFFFFFFFFFFFFFFFFFFFFFFFFFFFFFFF AND DUP2 MSTORE PUSH1 0x20 ADD SWAP1 DUP2 MSTORE PUSH1 0x20 ADD PUSH1 0x0 KECCAK256 PUSH1 0x0 PUSH2 0x100 EXP DUP2 SLOAD DUP2 PUSH20 0xFFFFFFFFFFFFFFFFFFFFFFFFFFFFFFFFFFFFFFFF MUL NOT AND SWAP1 DUP4 PUSH20 0xFFFFFFFFFFFFFFFFFFFFFFFFFFFFFFFFFFFFFFFF AND MUL OR SWAP1 SSTORE POP PUSH1 0x7 PUSH1 0x0 DUP3 PUSH20 0xFFFFFFFFFFFFFFFFFFFFFFFFFFFFFFFFFFFFFFFF AND PUSH20 0xFFFFFFFFFFFFFFFFFFFFFFFFFFFFFFFFFFFFFFFF AND DUP2 MSTORE PUSH1 0x20 ADD SWAP1 DUP2 MSTORE PUSH1 0x20 ADD PUSH1 0x0 KECCAK256 CALLER SWAP1 DUP1 PUSH1 0x1 DUP2 SLOAD ADD DUP1 DUP3 SSTORE DUP1 SWAP2 POP POP PUSH1 0x1 SWAP1 SUB SWAP1 PUSH1 0x0 MSTORE PUSH1 0x20 PUSH1 0x0 KECCAK256 ADD PUSH1 0x0 SWAP1 SWAP2 SWAP1 SWAP2 SWAP1 SWAP2 PUSH2 0x100 EXP DUP2 SLOAD DUP2 PUSH20 0xFFFFFFFFFFFFFFFFFFFFFFFFFFFFFFFFFFFFFFFF MUL NOT AND SWAP1 DUP4 PUSH20 0xFFFFFFFFFFFFFFFFFFFFFFFFFFFFFFFFFFFFFFFF AND MUL OR SWAP1 SSTORE POP PUSH1 0x4 PUSH1 0x0 CALLER PUSH20 0xFFFFFFFFFFFFFFFFFFFFFFFFFFFFFFFFFFFFFFFF AND PUSH20 0xFFFFFFFFFFFFFFFFFFFFFFFFFFFFFFFFFFFFFFFF AND DUP2 MSTORE PUSH1 0x20 ADD SWAP1 DUP2 MSTORE PUSH1 0x20 ADD PUSH1 0x0 KECCAK256 SLOAD PUSH1 0x8 PUSH1 0x0 DUP4 PUSH20 0xFFFFFFFFFFFFFFFFFFFFFFFFFFFFFFFFFFFFFFFF AND PUSH20 0xFFFFFFFFFFFFFFFFFFFFFFFFFFFFFFFFFFFFFFFF AND DUP2 MSTORE PUSH1 0x20 ADD SWAP1 DUP2 MSTORE PUSH1 0x20 ADD PUSH1 0x0 KECCAK256 PUSH1 0x0 DUP3 DUP3 SLOAD PUSH2 0x190B SWAP2 SWAP1 PUSH2 0x2A8C JUMP JUMPDEST SWAP3 POP POP DUP2 SWAP1 SSTORE POP PUSH32 0x7C708873977AE64AE9B60D4D434F3A06427392F21683051CEA69FBEB09F2FBE CALLER DUP3 PUSH1 0x4 PUSH1 0x0 CALLER PUSH20 0xFFFFFFFFFFFFFFFFFFFFFFFFFFFFFFFFFFFFFFFF AND PUSH20 0xFFFFFFFFFFFFFFFFFFFFFFFFFFFFFFFFFFFFFFFF AND DUP2 MSTORE PUSH1 0x20 ADD SWAP1 DUP2 MSTORE PUSH1 0x20 ADD PUSH1 0x0 KECCAK256 SLOAD PUSH1 0x40 MLOAD PUSH2 0x1984 SWAP4 SWAP3 SWAP2 SWAP1 PUSH2 0x2C4F JUMP JUMPDEST PUSH1 0x40 MLOAD DUP1 SWAP2 SUB SWAP1 LOG1 POP JUMP JUMPDEST PUSH1 0x0 PUSH1 0x4 PUSH1 0x0 CALLER PUSH20 0xFFFFFFFFFFFFFFFFFFFFFFFFFFFFFFFFFFFFFFFF AND PUSH20 0xFFFFFFFFFFFFFFFFFFFFFFFFFFFFFFFFFFFFFFFF AND DUP2 MSTORE PUSH1 0x20 ADD SWAP1 DUP2 MSTORE PUSH1 0x20 ADD PUSH1 0x0 KECCAK256 SLOAD GT PUSH2 0x1A11 JUMPI PUSH1 0x40 MLOAD PUSH32 0x8C379A000000000000000000000000000000000000000000000000000000000 DUP2 MSTORE PUSH1 0x4 ADD PUSH2 0x1A08 SWAP1 PUSH2 0x2680 JUMP JUMPDEST PUSH1 0x40 MLOAD DUP1 SWAP2 SUB SWAP1 REVERT JUMPDEST PUSH1 0x0 PUSH1 0x5 PUSH1 0x0 PUSH1 0x3 PUSH1 0x0 DUP2 SLOAD DUP1 SWAP3 SWAP2 SWAP1 PUSH2 0x1A2A SWAP1 PUSH2 0x2DCA JUMP JUMPDEST SWAP2 SWAP1 POP SSTORE DUP2 MSTORE PUSH1 0x20 ADD SWAP1 DUP2 MSTORE PUSH1 0x20 ADD PUSH1 0x0 KECCAK256 SWAP1 POP DUP8 DUP8 DUP3 PUSH1 0x0 ADD SWAP2 DUP3 PUSH2 0x1A51 SWAP3 SWAP2 SWAP1 PUSH2 0x2FEE JUMP JUMPDEST POP DUP6 DUP6 DUP3 PUSH1 0x1 ADD SWAP2 DUP3 PUSH2 0x1A65 SWAP3 SWAP2 SWAP1 PUSH2 0x2FEE JUMP JUMPDEST POP DUP4 DUP2 PUSH1 0x2 ADD PUSH1 0x0 PUSH2 0x100 EXP DUP2 SLOAD DUP2 PUSH20 0xFFFFFFFFFFFFFFFFFFFFFFFFFFFFFFFFFFFFFFFF MUL NOT AND SWAP1 DUP4 PUSH20 0xFFFFFFFFFFFFFFFFFFFFFFFFFFFFFFFFFFFFFFFF AND MUL OR SWAP1 SSTORE POP DUP3 DUP2 PUSH1 0x3 ADD DUP2 SWAP1 SSTORE POP PUSH1 0x0 DUP2 PUSH1 0x7 ADD PUSH1 0x0 PUSH2 0x100 EXP DUP2 SLOAD DUP2 PUSH1 0xFF MUL NOT AND SWAP1 DUP4 ISZERO ISZERO MUL OR SWAP1 SSTORE POP PUSH3 0x15180 DUP3 PUSH2 0x1ADE SWAP2 SWAP1 PUSH2 0x30BE JUMP JUMPDEST TIMESTAMP PUSH2 0x1AE9 SWAP2 SWAP1 PUSH2 0x2A8C JUMP JUMPDEST DUP2 PUSH1 0x8 ADD DUP2 SWAP1 SSTORE POP PUSH32 0x4C9472E4F5F2BD419AC4B5D05D084681C6E2DB988579B0C05204C0EEA14E6169 PUSH1 0x1 PUSH1 0x3 PUSH1 0x0 DUP2 SLOAD DUP1 SWAP3 SWAP2 SWAP1 PUSH2 0x1B27 SWAP1 PUSH2 0x2DCA JUMP JUMPDEST SWAP2 SWAP1 POP SSTORE PUSH2 0x1B35 SWAP2 SWAP1 PUSH2 0x2C1B JUMP JUMPDEST DUP10 DUP10 DUP10 DUP10 DUP10 DUP10 DUP10 PUSH1 0x40 MLOAD PUSH2 0x1B50 SWAP9 SWAP8 SWAP7 SWAP6 SWAP5 SWAP4 SWAP3 SWAP2 SWAP1 PUSH2 0x313C JUMP JUMPDEST PUSH1 0x40 MLOAD DUP1 SWAP2 SUB SWAP1 LOG1 POP POP POP POP POP POP POP POP JUMP JUMPDEST PUSH1 0x4 PUSH1 0x20 MSTORE DUP1 PUSH1 0x0 MSTORE PUSH1 0x40 PUSH1 0x0 KECCAK256 PUSH1 0x0 SWAP2 POP SWAP1 POP SLOAD DUP2 JUMP JUMPDEST PUSH1 0x1 PUSH1 0x14 SWAP1 SLOAD SWAP1 PUSH2 0x100 EXP SWAP1 DIV PUSH1 0xFF AND PUSH2 0x1BC9 JUMPI PUSH1 0x40 MLOAD PUSH32 0x8C379A000000000000000000000000000000000000000000000000000000000 DUP2 MSTORE PUSH1 0x4 ADD PUSH2 0x1BC0 SWAP1 PUSH2 0x31FB JUMP JUMPDEST PUSH1 0x40 MLOAD DUP1 SWAP2 SUB SWAP1 REVERT JUMPDEST PUSH1 0x1 PUSH1 0x0 SWAP1 SLOAD SWAP1 PUSH2 0x100 EXP SWAP1 DIV PUSH20 0xFFFFFFFFFFFFFFFFFFFFFFFFFFFFFFFFFFFFFFFF AND PUSH20 0xFFFFFFFFFFFFFFFFFFFFFFFFFFFFFFFFFFFFFFFF AND PUSH4 0x23B872DD CALLER ADDRESS PUSH1 0x2 SLOAD DUP6 PUSH2 0x1C17 SWAP2 SWAP1 PUSH2 0x30BE JUMP JUMPDEST PUSH1 0x40 MLOAD DUP5 PUSH4 0xFFFFFFFF AND PUSH1 0xE0 SHL DUP2 MSTORE PUSH1 0x4 ADD PUSH2 0x1C35 SWAP4 SWAP3 SWAP2 SWAP1 PUSH2 0x2C4F JUMP JUMPDEST PUSH1 0x20 PUSH1 0x40 MLOAD DUP1 DUP4 SUB DUP2 PUSH1 0x0 DUP8 GAS CALL ISZERO DUP1 ISZERO PUSH2 0x1C54 JUMPI RETURNDATASIZE PUSH1 0x0 DUP1 RETURNDATACOPY RETURNDATASIZE PUSH1 0x0 REVERT JUMPDEST POP POP POP POP PUSH1 0x40 MLOAD RETURNDATASIZE PUSH1 0x1F NOT PUSH1 0x1F DUP3 ADD AND DUP3 ADD DUP1 PUSH1 0x40 MSTORE POP DUP2 ADD SWAP1 PUSH2 0x1C78 SWAP2 SWAP1 PUSH2 0x27EE JUMP JUMPDEST PUSH2 0x1CB7 JUMPI PUSH1 0x40 MLOAD PUSH32 0x8C379A000000000000000000000000000000000000000000000000000000000 DUP2 MSTORE PUSH1 0x4 ADD PUSH2 0x1CAE SWAP1 PUSH2 0x2867 JUMP JUMPDEST PUSH1 0x40 MLOAD DUP1 SWAP2 SUB SWAP1 REVERT JUMPDEST DUP1 PUSH1 0x4 PUSH1 0x0 CALLER PUSH20 0xFFFFFFFFFFFFFFFFFFFFFFFFFFFFFFFFFFFFFFFF AND PUSH20 0xFFFFFFFFFFFFFFFFFFFFFFFFFFFFFFFFFFFFFFFF AND DUP2 MSTORE PUSH1 0x20 ADD SWAP1 DUP2 MSTORE PUSH1 0x20 ADD PUSH1 0x0 KECCAK256 PUSH1 0x0 DUP3 DUP3 SLOAD PUSH2 0x1D06 SWAP2 SWAP1 PUSH2 0x2A8C JUMP JUMPDEST SWAP3 POP POP DUP2 SWAP1 SSTORE POP PUSH32 0x4ADA3E4E678C9A929D2C6AF442E499E9EAF730193272DAF0EA4324C1B76FB6C3 CALLER DUP3 PUSH1 0x40 MLOAD PUSH2 0x1D3E SWAP3 SWAP2 SWAP1 PUSH2 0x321B JUMP JUMPDEST PUSH1 0x40 MLOAD DUP1 SWAP2 SUB SWAP1 LOG1 POP JUMP JUMPDEST PUSH1 0x8 PUSH1 0x20 MSTORE DUP1 PUSH1 0x0 MSTORE PUSH1 0x40 PUSH1 0x0 KECCAK256 PUSH1 0x0 SWAP2 POP SWAP1 POP SLOAD DUP2 JUMP JUMPDEST PUSH1 0x3 SLOAD DUP2 JUMP JUMPDEST PUSH2 0x1D6F PUSH2 0x1E13 JUMP JUMPDEST PUSH1 0x0 PUSH20 0xFFFFFFFFFFFFFFFFFFFFFFFFFFFFFFFFFFFFFFFF AND DUP2 PUSH20 0xFFFFFFFFFFFFFFFFFFFFFFFFFFFFFFFFFFFFFFFF AND SUB PUSH2 0x1DE1 JUMPI PUSH1 0x0 PUSH1 0x40 MLOAD PUSH32 0x1E4FBDF700000000000000000000000000000000000000000000000000000000 DUP2 MSTORE PUSH1 0x4 ADD PUSH2 0x1DD8 SWAP2 SWAP1 PUSH2 0x21F6 JUMP JUMPDEST PUSH1 0x40 MLOAD DUP1 SWAP2 SUB SWAP1 REVERT JUMPDEST PUSH2 0x1DEA DUP2 PUSH2 0x1E9A JUMP JUMPDEST POP JUMP JUMPDEST PUSH1 0x1 PUSH1 0x0 SWAP1 SLOAD SWAP1 PUSH2 0x100 EXP SWAP1 DIV PUSH20 0xFFFFFFFFFFFFFFFFFFFFFFFFFFFFFFFFFFFFFFFF AND DUP2 JUMP JUMPDEST PUSH2 0x1E1B PUSH2 0x1F5E JUMP JUMPDEST PUSH20 0xFFFFFFFFFFFFFFFFFFFFFFFFFFFFFFFFFFFFFFFF AND PUSH2 0x1E39 PUSH2 0x9BF JUMP JUMPDEST PUSH20 0xFFFFFFFFFFFFFFFFFFFFFFFFFFFFFFFFFFFFFFFF AND EQ PUSH2 0x1E98 JUMPI PUSH2 0x1E5C PUSH2 0x1F5E JUMP JUMPDEST PUSH1 0x40 MLOAD PUSH32 0x118CDAA700000000000000000000000000000000000000000000000000000000 DUP2 MSTORE PUSH1 0x4 ADD PUSH2 0x1E8F SWAP2 SWAP1 PUSH2 0x21F6 JUMP JUMPDEST PUSH1 0x40 MLOAD DUP1 SWAP2 SUB SWAP1 REVERT JUMPDEST JUMP JUMPDEST PUSH1 0x0 DUP1 PUSH1 0x0 SWAP1 SLOAD SWAP1 PUSH2 0x100 EXP SWAP1 DIV PUSH20 0xFFFFFFFFFFFFFFFFFFFFFFFFFFFFFFFFFFFFFFFF AND SWAP1 POP DUP2 PUSH1 0x0 DUP1 PUSH2 0x100 EXP DUP2 SLOAD DUP2 PUSH20 0xFFFFFFFFFFFFFFFFFFFFFFFFFFFFFFFFFFFFFFFF MUL NOT AND SWAP1 DUP4 PUSH20 0xFFFFFFFFFFFFFFFFFFFFFFFFFFFFFFFFFFFFFFFF AND MUL OR SWAP1 SSTORE POP DUP2 PUSH20 0xFFFFFFFFFFFFFFFFFFFFFFFFFFFFFFFFFFFFFFFF AND DUP2 PUSH20 0xFFFFFFFFFFFFFFFFFFFFFFFFFFFFFFFFFFFFFFFF AND PUSH32 0x8BE0079C531659141344CD1FD0A4F28419497F9722A3DAAFE3B4186F6B6457E0 PUSH1 0x40 MLOAD PUSH1 0x40 MLOAD DUP1 SWAP2 SUB SWAP1 LOG3 POP POP JUMP JUMPDEST PUSH1 0x0 CALLER SWAP1 POP SWAP1 JUMP JUMPDEST PUSH1 0x0 DUP1 REVERT JUMPDEST PUSH1 0x0 DUP1 REVERT JUMPDEST PUSH1 0x0 DUP2 SWAP1 POP SWAP2 SWAP1 POP JUMP JUMPDEST PUSH2 0x1F83 DUP2 PUSH2 0x1F70 JUMP JUMPDEST DUP2 EQ PUSH2 0x1F8E JUMPI PUSH1 0x0 DUP1 REVERT JUMPDEST POP JUMP JUMPDEST PUSH1 0x0 DUP2 CALLDATALOAD SWAP1 POP PUSH2 0x1FA0 DUP2 PUSH2 0x1F7A JUMP JUMPDEST SWAP3 SWAP2 POP POP JUMP JUMPDEST PUSH1 0x0 PUSH1 0x20 DUP3 DUP5 SUB SLT ISZERO PUSH2 0x1FBC JUMPI PUSH2 0x1FBB PUSH2 0x1F66 JUMP JUMPDEST JUMPDEST PUSH1 0x0 PUSH2 0x1FCA DUP5 DUP3 DUP6 ADD PUSH2 0x1F91 JUMP JUMPDEST SWAP2 POP POP SWAP3 SWAP2 POP POP JUMP JUMPDEST PUSH1 0x0 DUP2 MLOAD SWAP1 POP SWAP2 SWAP1 POP JUMP JUMPDEST PUSH1 0x0 DUP3 DUP3 MSTORE PUSH1 0x20 DUP3 ADD SWAP1 POP SWAP3 SWAP2 POP POP JUMP JUMPDEST PUSH1 0x0 JUMPDEST DUP4 DUP2 LT ISZERO PUSH2 0x200D JUMPI DUP1 DUP3 ADD MLOAD DUP2 DUP5 ADD MSTORE PUSH1 0x20 DUP2 ADD SWAP1 POP PUSH2 0x1FF2 JUMP JUMPDEST PUSH1 0x0 DUP5 DUP5 ADD MSTORE POP POP POP POP JUMP JUMPDEST PUSH1 0x0 PUSH1 0x1F NOT PUSH1 0x1F DUP4 ADD AND SWAP1 POP SWAP2 SWAP1 POP JUMP JUMPDEST PUSH1 0x0 PUSH2 0x2035 DUP3 PUSH2 0x1FD3 JUMP JUMPDEST PUSH2 0x203F DUP2 DUP6 PUSH2 0x1FDE JUMP JUMPDEST SWAP4 POP PUSH2 0x204F DUP2 DUP6 PUSH1 0x20 DUP7 ADD PUSH2 0x1FEF JUMP JUMPDEST PUSH2 0x2058 DUP2 PUSH2 0x2019 JUMP JUMPDEST DUP5 ADD SWAP2 POP POP SWAP3 SWAP2 POP POP JUMP JUMPDEST PUSH1 0x0 PUSH20 0xFFFFFFFFFFFFFFFFFFFFFFFFFFFFFFFFFFFFFFFF DUP3 AND SWAP1 POP SWAP2 SWAP1 POP JUMP JUMPDEST PUSH1 0x0 PUSH2 0x208E DUP3 PUSH2 0x2063 JUMP JUMPDEST SWAP1 POP SWAP2 SWAP1 POP JUMP JUMPDEST PUSH2 0x209E DUP2 PUSH2 0x2083 JUMP JUMPDEST DUP3 MSTORE POP POP JUMP JUMPDEST PUSH2 0x20AD DUP2 PUSH2 0x1F70 JUMP JUMPDEST DUP3 MSTORE POP POP JUMP JUMPDEST PUSH1 0x0 DUP2 ISZERO ISZERO SWAP1 POP SWAP2 SWAP1 POP JUMP JUMPDEST PUSH2 0x20C8 DUP2 PUSH2 0x20B3 JUMP JUMPDEST DUP3 MSTORE POP POP JUMP JUMPDEST PUSH1 0x0 PUSH2 0x120 DUP3 ADD SWAP1 POP DUP2 DUP2 SUB PUSH1 0x0 DUP4 ADD MSTORE PUSH2 0x20E9 DUP2 DUP13 PUSH2 0x202A JUMP JUMPDEST SWAP1 POP DUP2 DUP2 SUB PUSH1 0x20 DUP4 ADD MSTORE PUSH2 0x20FD DUP2 DUP12 PUSH2 0x202A JUMP JUMPDEST SWAP1 POP PUSH2 0x210C PUSH1 0x40 DUP4 ADD DUP11 PUSH2 0x2095 JUMP JUMPDEST PUSH2 0x2119 PUSH1 0x60 DUP4 ADD DUP10 PUSH2 0x20A4 JUMP JUMPDEST PUSH2 0x2126 PUSH1 0x80 DUP4 ADD DUP9 PUSH2 0x20A4 JUMP JUMPDEST PUSH2 0x2133 PUSH1 0xA0 DUP4 ADD DUP8 PUSH2 0x20A4 JUMP JUMPDEST PUSH2 0x2140 PUSH1 0xC0 DUP4 ADD DUP7 PUSH2 0x20A4 JUMP JUMPDEST PUSH2 0x214D PUSH1 0xE0 DUP4 ADD DUP6 PUSH2 0x20BF JUMP JUMPDEST PUSH2 0x215B PUSH2 0x100 DUP4 ADD DUP5 PUSH2 0x20A4 JUMP JUMPDEST SWAP11 SWAP10 POP POP POP POP POP POP POP POP POP POP JUMP JUMPDEST PUSH1 0x0 PUSH2 0x2174 DUP3 PUSH2 0x2063 JUMP JUMPDEST SWAP1 POP SWAP2 SWAP1 POP JUMP JUMPDEST PUSH2 0x2184 DUP2 PUSH2 0x2169 JUMP JUMPDEST DUP2 EQ PUSH2 0x218F JUMPI PUSH1 0x0 DUP1 REVERT JUMPDEST POP JUMP JUMPDEST PUSH1 0x0 DUP2 CALLDATALOAD SWAP1 POP PUSH2 0x21A1 DUP2 PUSH2 0x217B JUMP JUMPDEST SWAP3 SWAP2 POP POP JUMP JUMPDEST PUSH1 0x0 DUP1 PUSH1 0x40 DUP4 DUP6 SUB SLT ISZERO PUSH2 0x21BE JUMPI PUSH2 0x21BD PUSH2 0x1F66 JUMP JUMPDEST JUMPDEST PUSH1 0x0 PUSH2 0x21CC DUP6 DUP3 DUP7 ADD PUSH2 0x2192 JUMP JUMPDEST SWAP3 POP POP PUSH1 0x20 PUSH2 0x21DD DUP6 DUP3 DUP7 ADD PUSH2 0x1F91 JUMP JUMPDEST SWAP2 POP POP SWAP3 POP SWAP3 SWAP1 POP JUMP JUMPDEST PUSH2 0x21F0 DUP2 PUSH2 0x2169 JUMP JUMPDEST DUP3 MSTORE POP POP JUMP JUMPDEST PUSH1 0x0 PUSH1 0x20 DUP3 ADD SWAP1 POP PUSH2 0x220B PUSH1 0x0 DUP4 ADD DUP5 PUSH2 0x21E7 JUMP JUMPDEST SWAP3 SWAP2 POP POP JUMP JUMPDEST PUSH1 0x0 DUP1 PUSH1 0x40 DUP4 DUP6 SUB SLT ISZERO PUSH2 0x2228 JUMPI PUSH2 0x2227 PUSH2 0x1F66 JUMP JUMPDEST JUMPDEST PUSH1 0x0 PUSH2 0x2236 DUP6 DUP3 DUP7 ADD PUSH2 0x1F91 JUMP JUMPDEST SWAP3 POP POP PUSH1 0x20 PUSH2 0x2247 DUP6 DUP3 DUP7 ADD PUSH2 0x2192 JUMP JUMPDEST SWAP2 POP POP SWAP3 POP SWAP3 SWAP1 POP JUMP JUMPDEST PUSH1 0x0 PUSH1 0x20 DUP3 ADD SWAP1 POP PUSH2 0x2266 PUSH1 0x0 DUP4 ADD DUP5 PUSH2 0x20BF JUMP JUMPDEST SWAP3 SWAP2 POP POP JUMP JUMPDEST PUSH1 0x0 PUSH1 0x20 DUP3 DUP5 SUB SLT ISZERO PUSH2 0x2282 JUMPI PUSH2 0x2281 PUSH2 0x1F66 JUMP JUMPDEST JUMPDEST PUSH1 0x0 PUSH2 0x2290 DUP5 DUP3 DUP6 ADD PUSH2 0x2192 JUMP JUMPDEST SWAP2 POP POP SWAP3 SWAP2 POP POP JUMP JUMPDEST PUSH1 0x0 PUSH1 0xFF DUP3 AND SWAP1 POP SWAP2 SWAP1 POP JUMP JUMPDEST PUSH2 0x22AF DUP2 PUSH2 0x2299 JUMP JUMPDEST DUP2 EQ PUSH2 0x22BA JUMPI PUSH1 0x0 DUP1 REVERT JUMPDEST POP JUMP JUMPDEST PUSH1 0x0 DUP2 CALLDATALOAD SWAP1 POP PUSH2 0x22CC DUP2 PUSH2 0x22A6 JUMP JUMPDEST SWAP3 SWAP2 POP POP JUMP JUMPDEST PUSH1 0x0 DUP1 PUSH1 0x40 DUP4 DUP6 SUB SLT ISZERO PUSH2 0x22E9 JUMPI PUSH2 0x22E8 PUSH2 0x1F66 JUMP JUMPDEST JUMPDEST PUSH1 0x0 PUSH2 0x22F7 DUP6 DUP3 DUP7 ADD PUSH2 0x1F91 JUMP JUMPDEST SWAP3 POP POP PUSH1 0x20 PUSH2 0x2308 DUP6 DUP3 DUP7 ADD PUSH2 0x22BD JUMP JUMPDEST SWAP2 POP POP SWAP3 POP SWAP3 SWAP1 POP JUMP JUMPDEST PUSH1 0x0 PUSH1 0x20 DUP3 ADD SWAP1 POP PUSH2 0x2327 PUSH1 0x0 DUP4 ADD DUP5 PUSH2 0x20A4 JUMP JUMPDEST SWAP3 SWAP2 POP POP JUMP JUMPDEST PUSH1 0x0 DUP2 MLOAD SWAP1 POP SWAP2 SWAP1 POP JUMP JUMPDEST PUSH1 0x0 DUP3 DUP3 MSTORE PUSH1 0x20 DUP3 ADD SWAP1 POP SWAP3 SWAP2 POP POP JUMP JUMPDEST PUSH1 0x0 DUP2 SWAP1 POP PUSH1 0x20 DUP3 ADD SWAP1 POP SWAP2 SWAP1 POP JUMP JUMPDEST PUSH2 0x2362 DUP2 PUSH2 0x2169 JUMP JUMPDEST DUP3 MSTORE POP POP JUMP JUMPDEST PUSH1 0x0 PUSH2 0x2374 DUP4 DUP4 PUSH2 0x2359 JUMP JUMPDEST PUSH1 0x20 DUP4 ADD SWAP1 POP SWAP3 SWAP2 POP POP JUMP JUMPDEST PUSH1 0x0 PUSH1 0x20 DUP3 ADD SWAP1 POP SWAP2 SWAP1 POP JUMP JUMPDEST PUSH1 0x0 PUSH2 0x2398 DUP3 PUSH2 0x232D JUMP JUMPDEST PUSH2 0x23A2 DUP2 DUP6 PUSH2 0x2338 JUMP JUMPDEST SWAP4 POP PUSH2 0x23AD DUP4 PUSH2 0x2349 JUMP JUMPDEST DUP1 PUSH1 0x0 JUMPDEST DUP4 DUP2 LT ISZERO PUSH2 0x23DE JUMPI DUP2 MLOAD PUSH2 0x23C5 DUP9 DUP3 PUSH2 0x2368 JUMP JUMPDEST SWAP8 POP PUSH2 0x23D0 DUP4 PUSH2 0x2380 JUMP JUMPDEST SWAP3 POP POP PUSH1 0x1 DUP2 ADD SWAP1 POP PUSH2 0x23B1 JUMP JUMPDEST POP DUP6 SWAP4 POP POP POP POP SWAP3 SWAP2 POP POP JUMP JUMPDEST PUSH1 0x0 PUSH1 0x20 DUP3 ADD SWAP1 POP DUP2 DUP2 SUB PUSH1 0x0 DUP4 ADD MSTORE PUSH2 0x2405 DUP2 DUP5 PUSH2 0x238D JUMP JUMPDEST SWAP1 POP SWAP3 SWAP2 POP POP JUMP JUMPDEST PUSH1 0x0 DUP1 REVERT JUMPDEST PUSH1 0x0 DUP1 REVERT JUMPDEST PUSH1 0x0 DUP1 REVERT JUMPDEST PUSH1 0x0 DUP1 DUP4 PUSH1 0x1F DUP5 ADD SLT PUSH2 0x2432 JUMPI PUSH2 0x2431 PUSH2 0x240D JUMP JUMPDEST JUMPDEST DUP3 CALLDATALOAD SWAP1 POP PUSH8 0xFFFFFFFFFFFFFFFF DUP2 GT ISZERO PUSH2 0x244F JUMPI PUSH2 0x244E PUSH2 0x2412 JUMP JUMPDEST JUMPDEST PUSH1 0x20 DUP4 ADD SWAP2 POP DUP4 PUSH1 0x1 DUP3 MUL DUP4 ADD GT ISZERO PUSH2 0x246B JUMPI PUSH2 0x246A PUSH2 0x2417 JUMP JUMPDEST JUMPDEST SWAP3 POP SWAP3 SWAP1 POP JUMP JUMPDEST PUSH2 0x247B DUP2 PUSH2 0x2083 JUMP JUMPDEST DUP2 EQ PUSH2 0x2486 JUMPI PUSH1 0x0 DUP1 REVERT JUMPDEST POP JUMP JUMPDEST PUSH1 0x0 DUP2 CALLDATALOAD SWAP1 POP PUSH2 0x2498 DUP2 PUSH2 0x2472 JUMP JUMPDEST SWAP3 SWAP2 POP POP JUMP JUMPDEST PUSH1 0x0 DUP1 PUSH1 0x0 DUP1 PUSH1 0x0 DUP1 PUSH1 0x0 PUSH1 0xA0 DUP9 DUP11 SUB SLT ISZERO PUSH2 0x24BD JUMPI PUSH2 0x24BC PUSH2 0x1F66 JUMP JUMPDEST JUMPDEST PUSH1 0x0 DUP9 ADD CALLDATALOAD PUSH8 0xFFFFFFFFFFFFFFFF DUP2 GT ISZERO PUSH2 0x24DB JUMPI PUSH2 0x24DA PUSH2 0x1F6B JUMP JUMPDEST JUMPDEST PUSH2 0x24E7 DUP11 DUP3 DUP12 ADD PUSH2 0x241C JUMP JUMPDEST SWAP8 POP SWAP8 POP POP PUSH1 0x20 DUP9 ADD CALLDATALOAD PUSH8 0xFFFFFFFFFFFFFFFF DUP2 GT ISZERO PUSH2 0x250A JUMPI PUSH2 0x2509 PUSH2 0x1F6B JUMP JUMPDEST JUMPDEST PUSH2 0x2516 DUP11 DUP3 DUP12 ADD PUSH2 0x241C JUMP JUMPDEST SWAP6 POP SWAP6 POP POP PUSH1 0x40 PUSH2 0x2529 DUP11 DUP3 DUP12 ADD PUSH2 0x2489 JUMP JUMPDEST SWAP4 POP POP PUSH1 0x60 PUSH2 0x253A DUP11 DUP3 DUP12 ADD PUSH2 0x1F91 JUMP JUMPDEST SWAP3 POP POP PUSH1 0x80 PUSH2 0x254B DUP11 DUP3 DUP12 ADD PUSH2 0x1F91 JUMP JUMPDEST SWAP2 POP POP SWAP3 SWAP6 SWAP9 SWAP2 SWAP5 SWAP8 POP SWAP3 SWAP6 POP JUMP JUMPDEST PUSH1 0x0 DUP2 SWAP1 POP SWAP2 SWAP1 POP JUMP JUMPDEST PUSH1 0x0 PUSH2 0x257F PUSH2 0x257A PUSH2 0x2575 DUP5 PUSH2 0x2063 JUMP JUMPDEST PUSH2 0x255A JUMP JUMPDEST PUSH2 0x2063 JUMP JUMPDEST SWAP1 POP SWAP2 SWAP1 POP JUMP JUMPDEST PUSH1 0x0 PUSH2 0x2591 DUP3 PUSH2 0x2564 JUMP JUMPDEST SWAP1 POP SWAP2 SWAP1 POP JUMP JUMPDEST PUSH1 0x0 PUSH2 0x25A3 DUP3 PUSH2 0x2586 JUMP JUMPDEST SWAP1 POP SWAP2 SWAP1 POP JUMP JUMPDEST PUSH2 0x25B3 DUP2 PUSH2 0x2598 JUMP JUMPDEST DUP3 MSTORE POP POP JUMP JUMPDEST PUSH1 0x0 PUSH1 0x20 DUP3 ADD SWAP1 POP PUSH2 0x25CE PUSH1 0x0 DUP4 ADD DUP5 PUSH2 0x25AA JUMP JUMPDEST SWAP3 SWAP2 POP POP JUMP JUMPDEST PUSH32 0x4E487B7100000000000000000000000000000000000000000000000000000000 PUSH1 0x0 MSTORE PUSH1 0x22 PUSH1 0x4 MSTORE PUSH1 0x24 PUSH1 0x0 REVERT JUMPDEST PUSH1 0x0 PUSH1 0x2 DUP3 DIV SWAP1 POP PUSH1 0x1 DUP3 AND DUP1 PUSH2 0x261B JUMPI PUSH1 0x7F DUP3 AND SWAP2 POP JUMPDEST PUSH1 0x20 DUP3 LT DUP2 SUB PUSH2 0x262E JUMPI PUSH2 0x262D PUSH2 0x25D4 JUMP JUMPDEST JUMPDEST POP SWAP2 SWAP1 POP JUMP JUMPDEST PUSH32 0x4E6F7420612044414F206D656D62657200000000000000000000000000000000 PUSH1 0x0 DUP3 ADD MSTORE POP JUMP JUMPDEST PUSH1 0x0 PUSH2 0x266A PUSH1 0x10 DUP4 PUSH2 0x1FDE JUMP JUMPDEST SWAP2 POP PUSH2 0x2675 DUP3 PUSH2 0x2634 JUMP JUMPDEST PUSH1 0x20 DUP3 ADD SWAP1 POP SWAP2 SWAP1 POP JUMP JUMPDEST PUSH1 0x0 PUSH1 0x20 DUP3 ADD SWAP1 POP DUP2 DUP2 SUB PUSH1 0x0 DUP4 ADD MSTORE PUSH2 0x2699 DUP2 PUSH2 0x265D JUMP JUMPDEST SWAP1 POP SWAP2 SWAP1 POP JUMP JUMPDEST PUSH32 0x566F74696E67207374696C6C2061637469766500000000000000000000000000 PUSH1 0x0 DUP3 ADD MSTORE POP JUMP JUMPDEST PUSH1 0x0 PUSH2 0x26D6 PUSH1 0x13 DUP4 PUSH2 0x1FDE JUMP JUMPDEST SWAP2 POP PUSH2 0x26E1 DUP3 PUSH2 0x26A0 JUMP JUMPDEST PUSH1 0x20 DUP3 ADD SWAP1 POP SWAP2 SWAP1 POP JUMP JUMPDEST PUSH1 0x0 PUSH1 0x20 DUP3 ADD SWAP1 POP DUP2 DUP2 SUB PUSH1 0x0 DUP4 ADD MSTORE PUSH2 0x2705 DUP2 PUSH2 0x26C9 JUMP JUMPDEST SWAP1 POP SWAP2 SWAP1 POP JUMP JUMPDEST PUSH32 0x50726F706F73616C20616C726561647920657865637574656400000000000000 PUSH1 0x0 DUP3 ADD MSTORE POP JUMP JUMPDEST PUSH1 0x0 PUSH2 0x2742 PUSH1 0x19 DUP4 PUSH2 0x1FDE JUMP JUMPDEST SWAP2 POP PUSH2 0x274D DUP3 PUSH2 0x270C JUMP JUMPDEST PUSH1 0x20 DUP3 ADD SWAP1 POP SWAP2 SWAP1 POP JUMP JUMPDEST PUSH1 0x0 PUSH1 0x20 DUP3 ADD SWAP1 POP DUP2 DUP2 SUB PUSH1 0x0 DUP4 ADD MSTORE PUSH2 0x2771 DUP2 PUSH2 0x2735 JUMP JUMPDEST SWAP1 POP SWAP2 SWAP1 POP JUMP JUMPDEST PUSH1 0x0 PUSH2 0x2783 DUP3 PUSH2 0x2586 JUMP JUMPDEST SWAP1 POP SWAP2 SWAP1 POP JUMP JUMPDEST PUSH2 0x2793 DUP2 PUSH2 0x2778 JUMP JUMPDEST DUP3 MSTORE POP POP JUMP JUMPDEST PUSH1 0x0 PUSH1 0x40 DUP3 ADD SWAP1 POP PUSH2 0x27AE PUSH1 0x0 DUP4 ADD DUP6 PUSH2 0x278A JUMP JUMPDEST PUSH2 0x27BB PUSH1 0x20 DUP4 ADD DUP5 PUSH2 0x20A4 JUMP JUMPDEST SWAP4 SWAP3 POP POP POP JUMP JUMPDEST PUSH2 0x27CB DUP2 PUSH2 0x20B3 JUMP JUMPDEST DUP2 EQ PUSH2 0x27D6 JUMPI PUSH1 0x0 DUP1 REVERT JUMPDEST POP JUMP JUMPDEST PUSH1 0x0 DUP2 MLOAD SWAP1 POP PUSH2 0x27E8 DUP2 PUSH2 0x27C2 JUMP JUMPDEST SWAP3 SWAP2 POP POP JUMP JUMPDEST PUSH1 0x0 PUSH1 0x20 DUP3 DUP5 SUB SLT ISZERO PUSH2 0x2804 JUMPI PUSH2 0x2803 PUSH2 0x1F66 JUMP JUMPDEST JUMPDEST PUSH1 0x0 PUSH2 0x2812 DUP5 DUP3 DUP6 ADD PUSH2 0x27D9 JUMP JUMPDEST SWAP2 POP POP SWAP3 SWAP2 POP POP JUMP JUMPDEST PUSH32 0x546F6B656E207472616E73666572206661696C65640000000000000000000000 PUSH1 0x0 DUP3 ADD MSTORE POP JUMP JUMPDEST PUSH1 0x0 PUSH2 0x2851 PUSH1 0x15 DUP4 PUSH2 0x1FDE JUMP JUMPDEST SWAP2 POP PUSH2 0x285C DUP3 PUSH2 0x281B JUMP JUMPDEST PUSH1 0x20 DUP3 ADD SWAP1 POP SWAP2 SWAP1 POP JUMP JUMPDEST PUSH1 0x0 PUSH1 0x20 DUP3 ADD SWAP1 POP DUP2 DUP2 SUB PUSH1 0x0 DUP4 ADD MSTORE PUSH2 0x2880 DUP2 PUSH2 0x2844 JUMP JUMPDEST SWAP1 POP SWAP2 SWAP1 POP JUMP JUMPDEST PUSH32 0x496E76616C69642070726F706F73616C20494400000000000000000000000000 PUSH1 0x0 DUP3 ADD MSTORE POP JUMP JUMPDEST PUSH1 0x0 PUSH2 0x28BD PUSH1 0x13 DUP4 PUSH2 0x1FDE JUMP JUMPDEST SWAP2 POP PUSH2 0x28C8 DUP3 PUSH2 0x2887 JUMP JUMPDEST PUSH1 0x20 DUP3 ADD SWAP1 POP SWAP2 SWAP1 POP JUMP JUMPDEST PUSH1 0x0 PUSH1 0x20 DUP3 ADD SWAP1 POP DUP2 DUP2 SUB PUSH1 0x0 DUP4 ADD MSTORE PUSH2 0x28EC DUP2 PUSH2 0x28B0 JUMP JUMPDEST SWAP1 POP SWAP2 SWAP1 POP JUMP JUMPDEST PUSH32 0x566F74696E6720706572696F64206964206F7665720000000000000000000000 PUSH1 0x0 DUP3 ADD MSTORE POP JUMP JUMPDEST PUSH1 0x0 PUSH2 0x2929 PUSH1 0x15 DUP4 PUSH2 0x1FDE JUMP JUMPDEST SWAP2 POP PUSH2 0x2934 DUP3 PUSH2 0x28F3 JUMP JUMPDEST PUSH1 0x20 DUP3 ADD SWAP1 POP SWAP2 SWAP1 POP JUMP JUMPDEST PUSH1 0x0 PUSH1 0x20 DUP3 ADD SWAP1 POP DUP2 DUP2 SUB PUSH1 0x0 DUP4 ADD MSTORE PUSH2 0x2958 DUP2 PUSH2 0x291C JUMP JUMPDEST SWAP1 POP SWAP2 SWAP1 POP JUMP JUMPDEST PUSH32 0x416C726561647920766F74656400000000000000000000000000000000000000 PUSH1 0x0 DUP3 ADD MSTORE POP JUMP JUMPDEST PUSH1 0x0 PUSH2 0x2995 PUSH1 0xD DUP4 PUSH2 0x1FDE JUMP JUMPDEST SWAP2 POP PUSH2 0x29A0 DUP3 PUSH2 0x295F JUMP JUMPDEST PUSH1 0x20 DUP3 ADD SWAP1 POP SWAP2 SWAP1 POP JUMP JUMPDEST PUSH1 0x0 PUSH1 0x20 DUP3 ADD SWAP1 POP DUP2 DUP2 SUB PUSH1 0x0 DUP4 ADD MSTORE PUSH2 0x29C4 DUP2 PUSH2 0x2988 JUMP JUMPDEST SWAP1 POP SWAP2 SWAP1 POP JUMP JUMPDEST PUSH32 0x596F7520686176652064656C65676174656420796F757220766F74652C206361 PUSH1 0x0 DUP3 ADD MSTORE PUSH32 0x6E6E6F7420766F7465206469726563746C790000000000000000000000000000 PUSH1 0x20 DUP3 ADD MSTORE POP JUMP JUMPDEST PUSH1 0x0 PUSH2 0x2A27 PUSH1 0x32 DUP4 PUSH2 0x1FDE JUMP JUMPDEST SWAP2 POP PUSH2 0x2A32 DUP3 PUSH2 0x29CB JUMP JUMPDEST PUSH1 0x40 DUP3 ADD SWAP1 POP SWAP2 SWAP1 POP JUMP JUMPDEST PUSH1 0x0 PUSH1 0x20 DUP3 ADD SWAP1 POP DUP2 DUP2 SUB PUSH1 0x0 DUP4 ADD MSTORE PUSH2 0x2A56 DUP2 PUSH2 0x2A1A JUMP JUMPDEST SWAP1 POP SWAP2 SWAP1 POP JUMP JUMPDEST PUSH32 0x4E487B7100000000000000000000000000000000000000000000000000000000 PUSH1 0x0 MSTORE PUSH1 0x11 PUSH1 0x4 MSTORE PUSH1 0x24 PUSH1 0x0 REVERT JUMPDEST PUSH1 0x0 PUSH2 0x2A97 DUP3 PUSH2 0x1F70 JUMP JUMPDEST SWAP2 POP PUSH2 0x2AA2 DUP4 PUSH2 0x1F70 JUMP JUMPDEST SWAP3 POP DUP3 DUP3 ADD SWAP1 POP DUP1 DUP3 GT ISZERO PUSH2 0x2ABA JUMPI PUSH2 0x2AB9 PUSH2 0x2A5D JUMP JUMPDEST JUMPDEST SWAP3 SWAP2 POP POP JUMP JUMPDEST PUSH32 0x4E487B7100000000000000000000000000000000000000000000000000000000 PUSH1 0x0 MSTORE PUSH1 0x32 PUSH1 0x4 MSTORE PUSH1 0x24 PUSH1 0x0 REVERT JUMPDEST PUSH2 0x2AF8 DUP2 PUSH2 0x2299 JUMP JUMPDEST DUP3 MSTORE POP POP JUMP JUMPDEST PUSH1 0x0 PUSH1 0x80 DUP3 ADD SWAP1 POP PUSH2 0x2B13 PUSH1 0x0 DUP4 ADD DUP8 PUSH2 0x20A4 JUMP JUMPDEST PUSH2 0x2B20 PUSH1 0x20 DUP4 ADD DUP7 PUSH2 0x21E7 JUMP JUMPDEST PUSH2 0x2B2D PUSH1 0x40 DUP4 ADD DUP6 PUSH2 0x2AEF JUMP JUMPDEST PUSH2 0x2B3A PUSH1 0x60 DUP4 ADD DUP5 PUSH2 0x20A4 JUMP JUMPDEST SWAP6 SWAP5 POP POP POP POP POP JUMP JUMPDEST PUSH32 0x496E76616C696420766F7465206F7074696F6E00000000000000000000000000 PUSH1 0x0 DUP3 ADD MSTORE POP JUMP JUMPDEST PUSH1 0x0 PUSH2 0x2B79 PUSH1 0x13 DUP4 PUSH2 0x1FDE JUMP JUMPDEST SWAP2 POP PUSH2 0x2B84 DUP3 PUSH2 0x2B43 JUMP JUMPDEST PUSH1 0x20 DUP3 ADD SWAP1 POP SWAP2 SWAP1 POP JUMP JUMPDEST PUSH1 0x0 PUSH1 0x20 DUP3 ADD SWAP1 POP DUP2 DUP2 SUB PUSH1 0x0 DUP4 ADD MSTORE PUSH2 0x2BA8 DUP2 PUSH2 0x2B6C JUMP JUMPDEST SWAP1 POP SWAP2 SWAP1 POP JUMP JUMPDEST PUSH32 0x4E6F206163746976652064656C65676174696F6E000000000000000000000000 PUSH1 0x0 DUP3 ADD MSTORE POP JUMP JUMPDEST PUSH1 0x0 PUSH2 0x2BE5 PUSH1 0x14 DUP4 PUSH2 0x1FDE JUMP JUMPDEST SWAP2 POP PUSH2 0x2BF0 DUP3 PUSH2 0x2BAF JUMP JUMPDEST PUSH1 0x20 DUP3 ADD SWAP1 POP SWAP2 SWAP1 POP JUMP JUMPDEST PUSH1 0x0 PUSH1 0x20 DUP3 ADD SWAP1 POP DUP2 DUP2 SUB PUSH1 0x0 DUP4 ADD MSTORE PUSH2 0x2C14 DUP2 PUSH2 0x2BD8 JUMP JUMPDEST SWAP1 POP SWAP2 SWAP1 POP JUMP JUMPDEST PUSH1 0x0 PUSH2 0x2C26 DUP3 PUSH2 0x1F70 JUMP JUMPDEST SWAP2 POP PUSH2 0x2C31 DUP4 PUSH2 0x1F70 JUMP JUMPDEST SWAP3 POP DUP3 DUP3 SUB SWAP1 POP DUP2 DUP2 GT ISZERO PUSH2 0x2C49 JUMPI PUSH2 0x2C48 PUSH2 0x2A5D JUMP JUMPDEST JUMPDEST SWAP3 SWAP2 POP POP JUMP JUMPDEST PUSH1 0x0 PUSH1 0x60 DUP3 ADD SWAP1 POP PUSH2 0x2C64 PUSH1 0x0 DUP4 ADD DUP7 PUSH2 0x21E7 JUMP JUMPDEST PUSH2 0x2C71 PUSH1 0x20 DUP4 ADD DUP6 PUSH2 0x21E7 JUMP JUMPDEST PUSH2 0x2C7E PUSH1 0x40 DUP4 ADD DUP5 PUSH2 0x20A4 JUMP JUMPDEST SWAP5 SWAP4 POP POP POP POP JUMP JUMPDEST PUSH32 0x43616E6E6F742064656C656761746520746F20796F757273656C660000000000 PUSH1 0x0 DUP3 ADD MSTORE POP JUMP JUMPDEST PUSH1 0x0 PUSH2 0x2CBC PUSH1 0x1B DUP4 PUSH2 0x1FDE JUMP JUMPDEST SWAP2 POP PUSH2 0x2CC7 DUP3 PUSH2 0x2C86 JUMP JUMPDEST PUSH1 0x20 DUP3 ADD SWAP1 POP SWAP2 SWAP1 POP JUMP JUMPDEST PUSH1 0x0 PUSH1 0x20 DUP3 ADD SWAP1 POP DUP2 DUP2 SUB PUSH1 0x0 DUP4 ADD MSTORE PUSH2 0x2CEB DUP2 PUSH2 0x2CAF JUMP JUMPDEST SWAP1 POP SWAP2 SWAP1 POP JUMP JUMPDEST PUSH32 0x44656C6567617465206D7573742062652061206D656D62657200000000000000 PUSH1 0x0 DUP3 ADD MSTORE POP JUMP JUMPDEST PUSH1 0x0 PUSH2 0x2D28 PUSH1 0x19 DUP4 PUSH2 0x1FDE JUMP JUMPDEST SWAP2 POP PUSH2 0x2D33 DUP3 PUSH2 0x2CF2 JUMP JUMPDEST PUSH1 0x20 DUP3 ADD SWAP1 POP SWAP2 SWAP1 POP JUMP JUMPDEST PUSH1 0x0 PUSH1 0x20 DUP3 ADD SWAP1 POP DUP2 DUP2 SUB PUSH1 0x0 DUP4 ADD MSTORE PUSH2 0x2D57 DUP2 PUSH2 0x2D1B JUMP JUMPDEST SWAP1 POP SWAP2 SWAP1 POP JUMP JUMPDEST PUSH32 0x416C72656164792064656C656761746564000000000000000000000000000000 PUSH1 0x0 DUP3 ADD MSTORE POP JUMP JUMPDEST PUSH1 0x0 PUSH2 0x2D94 PUSH1 0x11 DUP4 PUSH2 0x1FDE JUMP JUMPDEST SWAP2 POP PUSH2 0x2D9F DUP3 PUSH2 0x2D5E JUMP JUMPDEST PUSH1 0x20 DUP3 ADD SWAP1 POP SWAP2 SWAP1 POP JUMP JUMPDEST PUSH1 0x0 PUSH1 0x20 DUP3 ADD SWAP1 POP DUP2 DUP2 SUB PUSH1 0x0 DUP4 ADD MSTORE PUSH2 0x2DC3 DUP2 PUSH2 0x2D87 JUMP JUMPDEST SWAP1 POP SWAP2 SWAP1 POP JUMP JUMPDEST PUSH1 0x0 PUSH2 0x2DD5 DUP3 PUSH2 0x1F70 JUMP JUMPDEST SWAP2 POP PUSH32 0xFFFFFFFFFFFFFFFFFFFFFFFFFFFFFFFFFFFFFFFFFFFFFFFFFFFFFFFFFFFFFFFF DUP3 SUB PUSH2 0x2E07 JUMPI PUSH2 0x2E06 PUSH2 0x2A5D JUMP JUMPDEST JUMPDEST PUSH1 0x1 DUP3 ADD SWAP1 POP SWAP2 SWAP1 POP JUMP JUMPDEST PUSH1 0x0 DUP3 SWAP1 POP SWAP3 SWAP2 POP POP JUMP JUMPDEST PUSH32 0x4E487B7100000000000000000000000000000000000000000000000000000000 PUSH1 0x0 MSTORE PUSH1 0x41 PUSH1 0x4 MSTORE PUSH1 0x24 PUSH1 0x0 REVERT JUMPDEST PUSH1 0x0 DUP2 SWAP1 POP DUP2 PUSH1 0x0 MSTORE PUSH1 0x20 PUSH1 0x0 KECCAK256 SWAP1 POP SWAP2 SWAP1 POP JUMP JUMPDEST PUSH1 0x0 PUSH1 0x20 PUSH1 0x1F DUP4 ADD DIV SWAP1 POP SWAP2 SWAP1 POP JUMP JUMPDEST PUSH1 0x0 DUP3 DUP3 SHL SWAP1 POP SWAP3 SWAP2 POP POP JUMP JUMPDEST PUSH1 0x0 PUSH1 0x8 DUP4 MUL PUSH2 0x2EAE PUSH32 0xFFFFFFFFFFFFFFFFFFFFFFFFFFFFFFFFFFFFFFFFFFFFFFFFFFFFFFFFFFFFFFFF DUP3 PUSH2 0x2E71 JUMP JUMPDEST PUSH2 0x2EB8 DUP7 DUP4 PUSH2 0x2E71 JUMP JUMPDEST SWAP6 POP DUP1 NOT DUP5 AND SWAP4 POP DUP1 DUP7 AND DUP5 OR SWAP3 POP POP POP SWAP4 SWAP3 POP POP POP JUMP JUMPDEST PUSH1 0x0 PUSH2 0x2EEB PUSH2 0x2EE6 PUSH2 0x2EE1 DUP5 PUSH2 0x1F70 JUMP JUMPDEST PUSH2 0x255A JUMP JUMPDEST PUSH2 0x1F70 JUMP JUMPDEST SWAP1 POP SWAP2 SWAP1 POP JUMP JUMPDEST PUSH1 0x0 DUP2 SWAP1 POP SWAP2 SWAP1 POP JUMP JUMPDEST PUSH2 0x2F05 DUP4 PUSH2 0x2ED0 JUMP JUMPDEST PUSH2 0x2F19 PUSH2 0x2F11 DUP3 PUSH2 0x2EF2 JUMP JUMPDEST DUP5 DUP5 SLOAD PUSH2 0x2E7E JUMP JUMPDEST DUP3 SSTORE POP POP POP POP JUMP JUMPDEST PUSH1 0x0 SWAP1 JUMP JUMPDEST PUSH2 0x2F2E PUSH2 0x2F21 JUMP JUMPDEST PUSH2 0x2F39 DUP2 DUP5 DUP5 PUSH2 0x2EFC JUMP JUMPDEST POP POP POP JUMP JUMPDEST JUMPDEST DUP2 DUP2 LT ISZERO PUSH2 0x2F5D JUMPI PUSH2 0x2F52 PUSH1 0x0 DUP3 PUSH2 0x2F26 JUMP JUMPDEST PUSH1 0x1 DUP2 ADD SWAP1 POP PUSH2 0x2F3F JUMP JUMPDEST POP POP JUMP JUMPDEST PUSH1 0x1F DUP3 GT ISZERO PUSH2 0x2FA2 JUMPI PUSH2 0x2F73 DUP2 PUSH2 0x2E4C JUMP JUMPDEST PUSH2 0x2F7C DUP5 PUSH2 0x2E61 JUMP JUMPDEST DUP2 ADD PUSH1 0x20 DUP6 LT ISZERO PUSH2 0x2F8B JUMPI DUP2 SWAP1 POP JUMPDEST PUSH2 0x2F9F PUSH2 0x2F97 DUP6 PUSH2 0x2E61 JUMP JUMPDEST DUP4 ADD DUP3 PUSH2 0x2F3E JUMP JUMPDEST POP POP JUMPDEST POP POP POP JUMP JUMPDEST PUSH1 0x0 DUP3 DUP3 SHR SWAP1 POP SWAP3 SWAP2 POP POP JUMP JUMPDEST PUSH1 0x0 PUSH2 0x2FC5 PUSH1 0x0 NOT DUP5 PUSH1 0x8 MUL PUSH2 0x2FA7 JUMP JUMPDEST NOT DUP1 DUP4 AND SWAP2 POP POP SWAP3 SWAP2 POP POP JUMP JUMPDEST PUSH1 0x0 PUSH2 0x2FDE DUP4 DUP4 PUSH2 0x2FB4 JUMP JUMPDEST SWAP2 POP DUP3 PUSH1 0x2 MUL DUP3 OR SWAP1 POP SWAP3 SWAP2 POP POP JUMP JUMPDEST PUSH2 0x2FF8 DUP4 DUP4 PUSH2 0x2E12 JUMP JUMPDEST PUSH8 0xFFFFFFFFFFFFFFFF DUP2 GT ISZERO PUSH2 0x3011 JUMPI PUSH2 0x3010 PUSH2 0x2E1D JUMP JUMPDEST JUMPDEST PUSH2 0x301B DUP3 SLOAD PUSH2 0x2603 JUMP JUMPDEST PUSH2 0x3026 DUP3 DUP3 DUP6 PUSH2 0x2F61 JUMP JUMPDEST PUSH1 0x0 PUSH1 0x1F DUP4 GT PUSH1 0x1 DUP2 EQ PUSH2 0x3055 JUMPI PUSH1 0x0 DUP5 ISZERO PUSH2 0x3043 JUMPI DUP3 DUP8 ADD CALLDATALOAD SWAP1 POP JUMPDEST PUSH2 0x304D DUP6 DUP3 PUSH2 0x2FD2 JUMP JUMPDEST DUP7 SSTORE POP PUSH2 0x30B5 JUMP JUMPDEST PUSH1 0x1F NOT DUP5 AND PUSH2 0x3063 DUP7 PUSH2 0x2E4C JUMP JUMPDEST PUSH1 0x0 JUMPDEST DUP3 DUP2 LT ISZERO PUSH2 0x308B JUMPI DUP5 DUP10 ADD CALLDATALOAD DUP3 SSTORE PUSH1 0x1 DUP3 ADD SWAP2 POP PUSH1 0x20 DUP6 ADD SWAP5 POP PUSH1 0x20 DUP2 ADD SWAP1 POP PUSH2 0x3066 JUMP JUMPDEST DUP7 DUP4 LT ISZERO PUSH2 0x30A8 JUMPI DUP5 DUP10 ADD CALLDATALOAD PUSH2 0x30A4 PUSH1 0x1F DUP10 AND DUP3 PUSH2 0x2FB4 JUMP JUMPDEST DUP4 SSTORE POP JUMPDEST PUSH1 0x1 PUSH1 0x2 DUP9 MUL ADD DUP9 SSTORE POP POP POP JUMPDEST POP POP POP POP POP POP POP JUMP JUMPDEST PUSH1 0x0 PUSH2 0x30C9 DUP3 PUSH2 0x1F70 JUMP JUMPDEST SWAP2 POP PUSH2 0x30D4 DUP4 PUSH2 0x1F70 JUMP JUMPDEST SWAP3 POP DUP3 DUP3 MUL PUSH2 0x30E2 DUP2 PUSH2 0x1F70 JUMP JUMPDEST SWAP2 POP DUP3 DUP3 DIV DUP5 EQ DUP4 ISZERO OR PUSH2 0x30F9 JUMPI PUSH2 0x30F8 PUSH2 0x2A5D JUMP JUMPDEST JUMPDEST POP SWAP3 SWAP2 POP POP JUMP JUMPDEST DUP3 DUP2 DUP4 CALLDATACOPY PUSH1 0x0 DUP4 DUP4 ADD MSTORE POP POP POP JUMP JUMPDEST PUSH1 0x0 PUSH2 0x311B DUP4 DUP6 PUSH2 0x1FDE JUMP JUMPDEST SWAP4 POP PUSH2 0x3128 DUP4 DUP6 DUP5 PUSH2 0x3100 JUMP JUMPDEST PUSH2 0x3131 DUP4 PUSH2 0x2019 JUMP JUMPDEST DUP5 ADD SWAP1 POP SWAP4 SWAP3 POP POP POP JUMP JUMPDEST PUSH1 0x0 PUSH1 0xC0 DUP3 ADD SWAP1 POP PUSH2 0x3151 PUSH1 0x0 DUP4 ADD DUP12 PUSH2 0x20A4 JUMP JUMPDEST DUP2 DUP2 SUB PUSH1 0x20 DUP4 ADD MSTORE PUSH2 0x3164 DUP2 DUP10 DUP12 PUSH2 0x310F JUMP JUMPDEST SWAP1 POP DUP2 DUP2 SUB PUSH1 0x40 DUP4 ADD MSTORE PUSH2 0x3179 DUP2 DUP8 DUP10 PUSH2 0x310F JUMP JUMPDEST SWAP1 POP PUSH2 0x3188 PUSH1 0x60 DUP4 ADD DUP7 PUSH2 0x278A JUMP JUMPDEST PUSH2 0x3195 PUSH1 0x80 DUP4 ADD DUP6 PUSH2 0x20A4 JUMP JUMPDEST PUSH2 0x31A2 PUSH1 0xA0 DUP4 ADD DUP5 PUSH2 0x20A4 JUMP JUMPDEST SWAP10 SWAP9 POP POP POP POP POP POP POP POP POP JUMP JUMPDEST PUSH32 0x546F6B656E2073616C6520697320636C6F736564000000000000000000000000 PUSH1 0x0 DUP3 ADD MSTORE POP JUMP JUMPDEST PUSH1 0x0 PUSH2 0x31E5 PUSH1 0x14 DUP4 PUSH2 0x1FDE JUMP JUMPDEST SWAP2 POP PUSH2 0x31F0 DUP3 PUSH2 0x31AF JUMP JUMPDEST PUSH1 0x20 DUP3 ADD SWAP1 POP SWAP2 SWAP1 POP JUMP JUMPDEST PUSH1 0x0 PUSH1 0x20 DUP3 ADD SWAP1 POP DUP2 DUP2 SUB PUSH1 0x0 DUP4 ADD MSTORE PUSH2 0x3214 DUP2 PUSH2 0x31D8 JUMP JUMPDEST SWAP1 POP SWAP2 SWAP1 POP JUMP JUMPDEST PUSH1 0x0 PUSH1 0x40 DUP3 ADD SWAP1 POP PUSH2 0x3230 PUSH1 0x0 DUP4 ADD DUP6 PUSH2 0x21E7 JUMP JUMPDEST PUSH2 0x323D PUSH1 0x20 DUP4 ADD DUP5 PUSH2 0x20A4 JUMP JUMPDEST SWAP4 SWAP3 POP POP POP JUMP INVALID LOG2 PUSH5 0x6970667358 0x22 SLT KECCAK256 0x4E 0xAE SHR 0xE2 0xB7 PUSH2 0xBC1C 0x2A 0xB4 SWAP1 0xC2 0xAA DUP12 0x2D 0xB6 EXTCODEHASH 0xD9 0xCC 0xF9 0x2A PUSH11 0xB1BD786FCD88E2EAFDB364 PUSH20 0x6F6C634300081B00330000000000000000000000 "
        },
        "methodIdentifiers": {
          "buyShares(uint256)": "d1a93d18",
          "delegate(address)": "5c19a95c",
          "delegateVote(address)": "b31e1d4d",
          "delegatedVotes(address)": "d364d4d4",
          "delegator(address,uint256)": "1174d001",
          "endSale()": "380d831b",
          "executeProposal(uint256)": "0d61b519",
          "getDelegator(address)": "a64ad595",
          "hasVoted(uint256,address)": "43859632",
          "owner()": "8da5cb5b",
          "pricePerShare()": "99530b06",
          "proposalCount()": "da35c664",
          "proposals(uint256)": "013cf08b",
          "proposeDecision(string,string,address,uint256,uint256)": "c062b406",
          "renounceOwnership()": "715018a6",
          "revokeDelegation()": "a4d31805",
          "saleActive()": "68428a1b",
          "shares(address)": "ce7c2ac2",
          "token()": "fc0c546a",
          "transferOwnership(address)": "f2fde38b",
          "vote(uint256,uint8)": "943e8216"
        }
      }
    }
  }
}